0114010010999991988010100004+70933-008667FM-12+0009ENJA V0203301N01851220001CN0030001N9-02011-02211100211ADDAA106000091AG14000AY131061AY221061GF102991021051008001001001MD1710141+9999MW1381OA149902631REMSYN011333   91151
0072010010999991988010103004+70933-008667FM-12+0009ENJA V0203301N01851220001CN0050001N9-02231-02421100151ADDAG12000AY131031AY221031GF102991021061004501001001MD1610061+9999MW1381
0133010010999991988010106004+70933-008667FM-12+0009ENJA V0203401N01391220001CN0050001N9-02211-02401100061ADDAA106000091AG14000AY131061AY211061GF103991031061004501001001KA1120N-02251MD1710091+9999MW1381OA149902731REMSYN017333   21225 91153
0072010010999991988010109004+70933-008667FM-12+0009ENJA V0203401N01851220001CN0050001N9-02131-02341099751ADDAG12000AY131031AY261031GF103991031061004501001001MD1710311+9999MW1341
0111010010999991988010112004+70933-008667FM-12+0009ENJA V0203401N01851220001CN0100001N9-02131-02341099531ADDAA106000091AG14000AY131061AY261061GF103991031061000751001001MD1710221+9999MW1381SA1-0189REMSYN011222// 01018
0072010010999991988010115004+70933-008667FM-12+0009ENJA V0203401N02001220001CN0005001N9-01941-02151099401ADDAG12000AY181031AY231031GF104991041061000751001001MD1710131+9999MW1851
0152010010999991988010118004+70933-008667FM-12+0009ENJA V0203401N01701220001CN0050001N9-01931+99999099381ADDAA199999929AG10000AY181061AY231061GF104991999061001501001001KA1120M-01721MD1610021+9999MW1381OA149903041REMSYN017333   11172 91159EQDQ01+000032SCOTLC
0091010010999991988010121004+70933-008667FM-12+0009ENJA V0203301N01641220001CN0100001N9-01821-01981099291ADDAG11000AY131031AY211031GF104991999061001501001001MD1710091+9999MW1381EQDQ01+000032SCOTLC
0114010010999991988010200004+70933-008667FM-12+0009ENJA V0203301N01441220001CN0100001N9-01701-01851099251ADDAA106002091AG10000AY171061AY231061GF103991031061002501001001MD1710041+9999MW1781OA149902881REMSYN011333   91156
0091010010999991988010203004+70933-008667FM-12+0009ENJA V0203201N01541220001CN0100001N9-01641-01821099251ADDAG12000AY171031AY231031GF104991999061002501001001MD1410001+9999MW1781EQDQ01+000032SCOTLC
0152010010999991988010206004+70933-008667FM-12+0009ENJA V0203501N01641002101CN0050001N9-01611-01781099301ADDAA199002091AG10000AY171061AY231061GF106991999061002501001001KA1120N-02021MD1310051+9999MW1381OA149902881REMSYN017333   21202 91156EQDQ01+000052SCOTLC
0072010010999991988010209004+70933-008667FM-12+0009ENJA V0203401N01641024001CN0010001N9-01821-01991099391ADDAG12000AY131031AY211031GF105991031061002501051001MD1210091+9999MW1381
0134010010999991988010212004+70933-008667FM-12+0009ENJA V0203401N01641024001CN0050001N9-01881-02051099521ADDAA106000391AG10000AY171061AY231061GF106991031061002501051001MD1210121+9999MW1381OA149902571SA1-0179REMSYN023222// 01017 333   91150
0072010010999991988010215004+70933-008667FM-12+0009ENJA V0203401N02061024001CN0050001N9-02171-02371099481ADDAG12000AY131031AY221031GF106991041061002501051081MD1810041+9999MW1381
0133010010999991988010218004+70933-008667FM-12+0009ENJA V0203301N02311024001CN0050001N9-02341-02561099381ADDAA199000591AG10000AY171061AY231061GF106991041061002501051001KA1120M-01611MD1710101+9999MW1381OA149902931REMSYN017333   11161 91157
0072010010999991988010221004+70933-008667FM-12+0009ENJA V0203301N02361024001CN0040001N9-02351-02601099351ADDAG12000AY131031AY221031GF106991041061002501051001MD1810031+9999MW1381
0114010010999991988010300004+70933-008667FM-12+0009ENJA V0203301N02211220001CN0015001N9-02221-02431099421ADDAA106000391AG10000AY171061AY231061GF103991031061002501001001MD1310071+9999MW1381OA149903091REMSYN011333   91160
0072010010999991988010303004+70933-008667FM-12+0009ENJA V0203301N02001220001CN0020001N9-02041-02251099391ADDAG11000AY131031AY211031GF103991031061002501001001MD1810031+9999MW1381
0133010010999991988010306004+70933-008667FM-12+0009ENJA V0203301N01851002101CN0030001N9-01771-01941099341ADDAA199000591AG10000AY131061AY211061GF105991051061002501001001KA1120N-02361MD1710051+9999MW1361OA149902781REMSYN017333   21236 91154
0072010010999991988010309004+70933-008667FM-12+0009ENJA V0203601N01641002101CN0030001N9-01671-01861099521ADDAG12000AY131031AY221031GF105991051061002501001001MD1310181+9999MW1361
0134010010999991988010312004+70933-008667FM-12+0009ENJA V0203401N01851024001CN0020001N9-01931-02141099621ADDAA106001091AG10000AY171061AY231061GF106991041061002501071001MD1210101+9999MW1361OA149902421SA1-0169REMSYN023222// 01016 333   91147
0072010010999991988010315004+70933-008667FM-12+0009ENJA V0203301N01801060001CN0030001N9-02191-02411099701ADDAG12000AY171031AY231031GF106991041061002501001081MD1210081+9999MW1361
0152010010999991988010318004+70933-008667FM-12+0009ENJA V0209999999999060001CN0020001N9-02241-02491099771ADDAA199001091AG10000AY171061AY231061GF106991041061002501001081KA1120M-01621MD1210071+9999MW1381OA149999999REMSYN017333   11162 91150EQDQ01  02572WGOSPD
0072010010999991988010321004+70933-008667FM-12+0009ENJA V0203301N01851220001CN0020001N9-02431-02681099811ADDAG12000AY131031AY211031GF104991041061002501001001MD1210041+9999MW1381
0114010010999991988010400004+70933-008667FM-12+0009ENJA V0203401N01751004201CN0025001N9-02361-02611099891ADDAA106001091AG10000AY131061AY231061GF105991051061004501001001MD1210081+9999MW1381OA149902781REMSYN011333   91154
0072010010999991988010403004+70933-008667FM-12+0009ENJA V0203301N01751004201CN0030001N9-02371-02591099951ADDAG12000AY131031AY231031GF105991051061004501001001MD1210061+9999MW1381
0152010010999991988010406004+70933-008667FM-12+0009ENJA V0203401N01751004201CN0050001N9-02401-02661099961ADDAA199001091AG10000AY131061AY221061GF107991999061004501001001KA1120N-02461MD1210011+9999MW1361OA149902681REMSYN017333   21246 91152EQDQ01+000062SCOTLC
0072010010999991988010409004+70933-008667FM-12+0009ENJA V0203301N01851004201CN0020001N9-02421-02691099951ADDAG12000AY131031AY211031GF105991051061004501001001MD1810011+9999MW1381
0134010010999991988010412004+70933-008667FM-12+0009ENJA V0203401N01751024001CN0020001N9-02461-02741099991ADDAA106002091AG10000AY171061AY231061GF107991041061002501071999MD1310041+9999MW1381OA149902831SA1-0179REMSYN023222// 01017 333   91155
0072010010999991988010415004+70933-008667FM-12+0009ENJA V0203401N01641002101CN0030001N9-02491-02831100021ADDAG12000AY171031AY231031GF107991051061002501071001MD1210031+9999MW1361
0133010010999991988010418004+70933-008667FM-12+0009ENJA V0200101N01131002101CN0025001N9-02511-02851100091ADDAA199001091AG10000AY171061AY231061GF107991051061002501071001KA1120M-02321MD1210071+9999MW1361OA149903141REMSYN017333   11232 91161
0072010010999991988010421004+70933-008667FM-12+0009ENJA V0203201N01491002101CN0020001N9-02511-02801100061ADDAG12000AY171031AY231031GF107991071061002501999999MD1710031+9999MW1701
0083010010999991988010500004+70933-008667FM-12+0009ENJA V0203401N01441220001CN0030001N9-02491-02941100091ADDAA106000591AG10000AY131061AY221061GF104991041051004501001001MD1510031+9999MW1381
0072010010999991988010503004+70933-008667FM-12+0009ENJA V0203301N01131220001CN0050001N9-02401-02791100171ADDAG12000AY131031AY211031GF104991041061001501001001MD1210081+9999MW1381
0133010010999991988010506004+70933-008667FM-12+0009ENJA V0203301N01031002101CN0005001N9-02261-02531099991ADDAA199000591AG10000AY181061AY231061GF107991071061002501999999KA1120N-02541MD1010051+9999MW1851OA149902991REMSYN017333   21254 91158
0072010010999991988010509004+70933-008667FM-12+0009ENJA V0203301N00511220001CN0300001N9-02231-02771100191ADDAG12000AY181031AY231031GF104991041071002501001001MD1210071+9999MW1361
0134010010999991988010512004+70933-008667FM-12+0009ENJA V0203001N00571220001CN0750001N9-02051-02651100321ADDAA106000591AG10000AY181061AY211061GF103991021081002501001011MD1210131+9999MW1021OA149902321SA1-0179REMSYN023222// 01017 333   91145
0072010010999991988010515004+70933-008667FM-12+0009ENJA V0203301N00511006001CN0100001N9-02031-02421100281ADDAG12000AY181031AY231031GF108991051081002501071999MD1710041+9999MW1851
0133010010999991988010518004+70933-008667FM-12+0009ENJA V0202701N00261220001CN0750001N9-01951-03101100261ADDAA199000591AG10000AY181061AY231061GF101991011051008001001001KA1120M-01911MD1710021+9999MW1011OA149901441REMSYN017333   11191 91128
0050010010999991988010521004+70933-008667FM-12+0009ENJA V0202701N00411220001CN0750001N9-01901-02991100311ADDAG12000GF101991011051008001001001MD1310051+9999
0092010010999991988010600004+70933-008667FM-12+0009ENJA V0202701N00101220001CN0750001N9-01951-02341100411ADDAA106000091AG14000GF102991021051008001001001MD1110101+9999OA149900621REMSYN011333   91112
0072010010999991988010603004+70933-008667FM-12+0009ENJA V0203001N00101009001CN0050001N9-01521-01681100061ADDAG12000AY171031AY221031GF107991061081004501999999MD1810341+9999MW1711
0149010010999991988010606004+70933-008667FM-12+0009ENJA V0201801N01441000301CN0002001N9-00841-01091099791ADDAA199000591AG10000AY181061AY231061GA1091+999999999GF109991091999999999999999KA1120N-02041MD1610271+9999MW1021OA149902061REMSYN017333   21204 91140
0072010010999991988010609004+70933-008667FM-12+0009ENJA V0201801N00311001201CN0015001N9-01191-01261099911ADDAG12000AY181031AY271031GF108991081071001501999999MD1210121+9999MW1701
0134010010999991988010612004+70933-008667FM-12+0009ENJA V0202101N00311000601CN0015001N9-01331-01451100051ADDAA106003091AG10000AY171061AY271061GF108991081071000751999999MD1110141+9999MW1701OA149902061SA1-0179REMSYN023222// 01017 333   91140
0072010010999991988010615004+70933-008667FM-12+0009ENJA V0209991C00001220001CN0750001N9-01521-01651100091ADDAG12000AY171031AY221031GF103991021071002501051001MD1310041+9999MW1021
0133010010999991988010618004+70933-008667FM-12+0009ENJA V0202701N00051220001CN0750001N9-01531-01861100031ADDAA199004091AG10000AY171061AY221061GF103991021071002501051001KA1120M-00811MD1710061+9999MW1021OA149900461REMSYN017333   11081 91109
0050010010999991988010621004+70933-008667FM-12+0009ENJA V0202701N00621024001CN0750001N9-01461-01891100031ADDAG12000GF105991041051008001051001MD1510001+9999
0092010010999991988010700004+70933-008667FM-12+0009ENJA V0202701N00621220001CN0750001N9-01881-02321100091ADDAA106000091AG14000GF104991041051008001001001MD1210061+9999OA149901081REMSYN011333   91121
0069010010999991988010703004+70933-008667FM-12+0009ENJA V0209991C00001220001CN0750001N9-02001-02311100121ADDAG12000GF103991999051008001001001MD1210031+9999EQDQ01+000022SCOTLC
0111010010999991988010706004+70933-008667FM-12+0009ENJA V0202701N00671220001CN0750001N9-01811-02151100091ADDAA106000091AG14000GF103991031051008001001001KA1120N-02071MD1810031+9999OA149901241REMSYN017333   21207 91124
0072010010999991988010709004+70933-008667FM-12+0009ENJA V0202901N00721220001CN0750001N9-01711-02101100061ADDAG12000AY131031AY201031GF103991031051008001001001MD1710031+9999MW1361
0134010010999991988010712004+70933-008667FM-12+0009ENJA V0203001N00931220001CN0015001N9-01661-01881100191ADDAA106999929AG10000AY131061AY211061GF104991031061004501051001MD1310131+9999MW1361OA149901491SA1-0169REMSYN023222// 01016 333   91129
0091010010999991988010715004+70933-008667FM-12+0009ENJA V0202801N00981220001CN0300001N9-01391-01911100361ADDAG12000AY131031AY211031GF103991999061004501001001MD1210181+9999MW1021EQDQ01+000022SCOTLC
0133010010999991988010718004+70933-008667FM-12+0009ENJA V0202601N00821220001CN0300001N9-01271-01801100461ADDAA199999929AG10000AY131061AY211061GF103991999999004501999999KA1120M-01271MD1210101+9999MW1021OA149902011REMSYN017333   11127 91139
0050010010999991988010721004+70933-008667FM-12+0009ENJA V0202501N00511220001CN0750001N9-01181-01731100571ADDAG12000GF103991021051008001041001MD1210111+9999
0114010010999991988010800004+70933-008667FM-12+0009ENJA V0202501N00411220001CN0750001N9-00951-01431100621ADDAA106999929AG10000AY171061AY211061GF102991021051008001001001MD1210051+9999MW1021OA149901031REMSYN011333   91120
0072010010999991988010803004+70933-008667FM-12+0009ENJA V0202601N00461220001CN0750001N9-00841-01511100731ADDAG12000AY171031AY211031GF104991041051008001001001MD1210111+9999MW1031
0133010010999991988010806004+70933-008667FM-12+0009ENJA V0202401N00311007501CN0750001N9-00811-01441100741ADDAA199999929AG10000AY171061AY211061GF107991071051008001001001KA1120N-01291MD1110011+9999MW1031OA149900881REMSYN017333   21129 91117
0050010010999991988010809004+70933-008667FM-12+0009ENJA V0200201N00361007501CN0750001N9-00861-01391100731ADDAG12000GF105991051051008001001001MD1810011+9999
0112010010999991988010812004+70933-008667FM-12+0009ENJA V0200901N00621007501CN0750001N9-00571-01151100601ADDAA106000091AG14000GF106991051051008001001091MD1710131+9999OA149900721SA1-0159REMSYN023222// 01015 333   91114
0050010010999991988010815004+70933-008667FM-12+0009ENJA V0203601N00411007501CN0600001N9-00651-01191100381ADDAG12000GF108991071051008001999999MD1710221+9999
0111010010999991988010818004+70933-008667FM-12+0009ENJA V0200601N00621007501CN0300001N9-00501-00811100151ADDAA106000091AG14000GF108991081051008001999999KA1120M-00421MD1710231+9999OA149901651REMSYN017333   11042 91132
0050010010999991988010821004+70933-008667FM-12+0009ENJA V0200701N01031024001CN0200001N9-00301-00551099951ADDAG12000GF108991031051008001071999MD1710201+9999
0114010010999991988010900004+70933-008667FM-12+0009ENJA V0200801N01131002101CN0050001N9-00191-00351099741ADDAA106999929AG10000AY171061AY221061GF108991071071002501021999MD1710211+9999MW1701OA149901541REMSYN011333   91130
0072010010999991988010903004+70933-008667FM-12+0009ENJA V0200601N00821002101CN0100001N9-00201-00391099771ADDAG12000AY171031AY221031GF107991051071002501041001MD1310031+9999MW1021
0133010010999991988010906004+70933-008667FM-12+0009ENJA V0200601N00361001201CN0045001N9-00231-00431099761ADDAA199999929AG10000AY171061AY221061GF108991081061001501999999KA1120N-00561MD1710011+9999MW1021OA149901541REMSYN017333   21056 91130
0072010010999991988010909004+70933-008667FM-12+0009ENJA V0202701N00211004201CN0050001N9-00231-00451099751ADDAG12000AY171031AY221031GF107991051061004501021999MD1710011+9999MW1771
0134010010999991988010912004+70933-008667FM-12+0009ENJA V0200801N00571004201CN0300001N9-00221-00421099641ADDAA106000591AG10000AY171061AY221061GF107991061051004501071999MD1810111+9999MW1021OA149900881SA1-0179REMSYN023222// 01017 333   91117
0050010010999991988010915004+70933-008667FM-12+0009ENJA V0200601N00411007501CN0300001N9-00191-00441099341ADDAG12000GF107991051051008001071999MD1710301+9999
0133010010999991988010918004+70933-008667FM-12+0009ENJA V0202501N00821004201CN0200001N9-00461-00701099041ADDAA199001091AG10000AY171061AY221061GF106991051051004501071999KA1120M-00151MD1710301+9999MW1361OA149901801REMSYN017333   11015 91135
0072010010999991988010921004+70933-008667FM-12+0009ENJA V0203501N01541002101CN0040001N9-00861-01091098521ADDAG12000AY131031AY221031GF107991071051002501999999MD1710521+9999MW1381
0130010010999991988011000004+70933-008667FM-12+0009ENJA V0203501N01641000301CN0002001N9-00801-00871098051ADDAA106002091AG10000AY181061AY231061GA1091+999999999GF109991091999999999999999MD1810471+9999MW1391OA149902571REMSYN011333   91150
0088010010999991988011003004+70933-008667FM-12+0009ENJA V0203601N01591000301CN0002001N9-00521-00591097561ADDAG12000AY181031AY231031GA1091+999999999GF109991091999999999999999MD1710491+9999MW1391
0149010010999991988011006004+70933-008667FM-12+0009ENJA V0203601N01751000301CN0002001N9-00591-00631097321ADDAA199003091AG10000AY181061AY231061GA1091+999999999GF109991091999999999999999KA1120N-00931MD1710241+9999MW1391OA149902991REMSYN017333   21093 91158
0088010010999991988011009004+70933-008667FM-12+0009ENJA V0203601N01541000601CN0010001N9-00471-00541096821ADDAG12000AY181031AY231031GA1091+999999999GF109991091999999999999999MD1710501+9999MW1391
0134010010999991988011012004+70933-008667FM-12+0009ENJA V0203501N01341001201CN0020001N9-00271-00341096791ADDAA106002091AG10000AY181061AY231061GF108991071071001501999999MD1610031+9999MW1371OA149902831SA1-0189REMSYN023222// 01018 333   91155
0072010010999991988011015004+70933-008667FM-12+0009ENJA V0203301N01181001201CN0030001N9-00191-00201096971ADDAG12000AY181031AY231031GF107991071071001501999999MD1210181+9999MW1361
0133010010999991988011018004+70933-008667FM-12+0009ENJA V0203501N01391001201CN0025001N9-00281-00351097201ADDAA199003091AG10000AY181061AY231061GF108991081071001501999999KA1120M-00151MD1210231+9999MW1361OA149902371REMSYN017333   11015 91146
0072010010999991988011021004+70933-008667FM-12+0009ENJA V0203401N01491001201CN0030001N9-00261-00331097481ADDAG12000AY181031AY231031GF108991081071001501999999MD1210281+9999MW1361
0130010010999991988011100004+70933-008667FM-12+0009ENJA V0203401N01641000301CN0002001N9-00211-00251097811ADDAA106001091AG10000AY181061AY231061GA1091+999999999GF109991091999999999999999MD1210331+9999MW1851OA149902471REMSYN011333   91148
0088010010999991988011103004+70933-008667FM-12+0009ENJA V0203601N01541000301CN0002001N9-00281-00311098231ADDAG12000AY181031AY231031GA1091+999999999GF109991091999999999999999MD1210421+9999MW1851
0149010010999991988011106004+70933-008667FM-12+0009ENJA V0203501N01641000301CN0002001N9-00391-00421098611ADDAA199003091AG10001AY181061AY231061GA1091+999999999GF109991091999999999999999KA1120N-00391MD1210381+9999MW1861OA149902571REMSYN017333   21039 91150
0088010010999991988011109004+70933-008667FM-12+0009ENJA V0203601N01751000601CN0010001N9-00441-00561099091ADDAG12000AY181031AY231031GA1091+999999999GF109991091999999999999999MD1310481+9999MW1851
0150010010999991988011112004+70933-008667FM-12+0009ENJA V0203501N01341000301CN0002001N9-00501-00511099481ADDAA106001091AG10000AY181061AY231061GA1091+999999999GF109991091999999999999999MD1210391+9999MW1701OA149902881SA1-0189REMSYN023222// 01018 333   91156
0088010010999991988011115004+70933-008667FM-12+0009ENJA V0203401N01391000301CN0002001N9-00581-00621099901ADDAG12000AY171031AY231031GA1091+999999999GF109991091999999999999999MD1210441+9999MW1711
0149010010999991988011118004+70933-008667FM-12+0009ENJA V0203401N01231000301CN0002001N9-00541-00951100131ADDAA199003091AG10000AY171061AY231061GA1091+999999999GF109991091999999999999999KA1120M-00381MD1210211+9999MW1711OA149902681REMSYN017333   11038 91152
0072010010999991988011121004+70933-008667FM-12+0009ENJA V0200301N00311220001CN0200001N9-00541-01011100641ADDAG12000AY131031AY211031GF102991999999999999999999MD1210511+9999MW1011
0114010010999991988011200004+70933-008667FM-12+0009ENJA V0203501N00411220001CN0200001N9-00631-00851100871ADDAA106999929AG10000AY171061AY231061GF104991041071004501001001MD1210231+9999MW1701OA149902471REMSYN011333   91148
0072010010999991988011203004+70933-008667FM-12+0009ENJA V0203301N00511220001CN0300001N9-00661-00841100981ADDAG12000AY171031AY211031GF104991041051008001001001MD1210111+9999MW1781
0133010010999991988011206004+70933-008667FM-12+0009ENJA V0202301N00361220001CN0300001N9-00731-01111101051ADDAA199999929AG10000AY171061AY211061GF104991041051008001001001KA1120N-00761MD1110071+9999MW1021OA149901181REMSYN017333   21076 91123
0050010010999991988011209004+70933-008667FM-12+0009ENJA V0202501N00261220001CN0300001N9-00831-01261101161ADDAG12000GF103991031051008001001001MD1210111+9999
0112010010999991988011212004+70933-008667FM-12+0009ENJA V0202101N00101220001CN0750001N9-00931-01361101261ADDAA106000091AG14000GF103991031051008001001001MD1210101+9999OA149900621SA1-0179REMSYN023222// 01017 333   91112
0050010010999991988011215004+70933-008667FM-12+0009ENJA V0202101N00361220001CN0750001N9-00961-01391101251ADDAG12000GF103991011031008001051041MD1810011+9999
0111010010999991988011218004+70933-008667FM-12+0009ENJA V0209991C00001220001CN0750001N9-00941-01271101231ADDAA106000091AG14000GF104991021081008001051001KA1120M-00711MD1810021+9999OA149900511REMSYN017333   11071 91110
0050010010999991988011221004+70933-008667FM-12+0009ENJA V0209991C00001024001CN0750001N9-00921-01331101171ADDAG12000GF105991041051008001051001MD1710061+9999
0092010010999991988011300004+70933-008667FM-12+0009ENJA V0209991V00151024001CN0750001N9-00901-01291101121ADDAA106000091AG14000GF108991031051004501031999MD1710051+9999OA149900261REMSYN011333   91105
0050010010999991988011303004+70933-008667FM-12+0009ENJA V0209991C00001024001CN0750001N9-00911-01291100971ADDAG12000GF108991031051004501031999MD1810151+9999
0111010010999991988011306004+70933-008667FM-12+0009ENJA V0209991C00001220001CN0750001N9-00981-01371100861ADDAA106000091AG14000GF100991001001999999001001KA1120N-00981MD1710111+9999OA149900151REMSYN017333   21098 91103
0050010010999991988011309004+70933-008667FM-12+0009ENJA V0203401N00361220001CN0750001N9-00931-01321100711ADDAG12000GF102991021051004501001001MD1710151+9999
0112010010999991988011312004+70933-008667FM-12+0009ENJA V0203401N00571220001CN0750001N9-00901-01291100631ADDAA106000091AG14000GF104991031051008001051001MD1610081+9999OA149900671SA1-0149REMSYN023222// 01014 333   91113
0050010010999991988011315004+70933-008667FM-12+0009ENJA V0203501N00981220001CN0750001N9-00911-01041100421ADDAG12000GF102991021051008001001001MD1810261+9999
0133010010999991988011318004+70933-008667FM-12+0009ENJA V0203201N01131220001CN0750001N9-00981-01111100301ADDAA106000091AG14000AY111061AY201061GF102991011051008001031001KA1120M-00761MD1710121+9999MW1361OA149901391REMSYN017333   11076 91127
0072010010999991988011321004+70933-008667FM-12+0009ENJA V0203201N01291220001CN0300001N9-00991-01141100191ADDAG12000AY131031AY201031GF102991011051008001031001MD1710111+9999MW1361
0072010010999991988011403004+70933-008667FM-12+0009ENJA V0200101N01031220001CN0200001N9-01051-01181100321ADDAG11000AY131031AY221031GF103991031051008001001001MD1310111+9999MW1021
0133010010999991988011406004+70933-008667FM-12+0009ENJA V0203401N01131220001CN0250001N9-01061-01421100351ADDAA199000391AG10000AY131061AY221061GF103991031051004501001001KA1120N-01081MD1210031+9999MW1021OA149901801REMSYN017333   21108 91135
0050010010999991988011409004+70933-008667FM-12+0009ENJA V0203101N00821220001CN0750001N9-01091-01551100601ADDAG12000GF101991011051004501001001MD1310251+9999
0112010010999991988011412004+70933-008667FM-12+0009ENJA V0203101N00311220001CN0750001N9-01031-02031100861ADDAA106000091AG14000GF101991011051004501041001MD1210261+9999OA149901391SA1-0189REMSYN023222// 01018 333   91127
0050010010999991988011415004+70933-008667FM-12+0009ENJA V0209991C00001220001CN0750001N9-01211-01911101031ADDAG12000GF101991011051004501041001MD1210171+9999
0111010010999991988011418004+70933-008667FM-12+0009ENJA V0209991C00001220001CN0750001N9-01311-01701101281ADDAA106000091AG14000GF101991011051004501041001KA1120M-00881MD1210251+9999OA149900671REMSYN017333   11088 91113
0050010010999991988011421004+70933-008667FM-12+0009ENJA V0209991C00001220001CN0750001N9-01161-02201101371ADDAG12000GF102991021051004501001001MD1210091+9999
0061010010999991988011500004+70933-008667FM-12+0009ENJA V0209991C00001220001CN0750001N9-01071-01951101401ADDAA106000091AG14000GF102991021051008001001001MD1210031+9999
0050010010999991988011503004+70933-008667FM-12+0009ENJA V0202201N00211220001CN0750001N9-01001-01831101441ADDAG12000GF102991021051008001001001MD1210041+9999
0111010010999991988011506004+70933-008667FM-12+0009ENJA V0202201N00101220001CN0750001N9-00781-01021101441ADDAA106000091AG14000GF102991021051008001001001KA1120N-01361MD1410001+9999OA149900261REMSYN017333   21136 91105
0050010010999991988011509004+70933-008667FM-12+0009ENJA V0202101N00101220001CN0750001N9-00681-00851101461ADDAG12000GF103991031051008001001001MD1210021+9999
0112010010999991988011512004+70933-008667FM-12+0009ENJA V0202201N00211007501CN0750001N9-00471-00701101531ADDAA106000091AG14000GF108991081051008001999999MD1210071+9999OA149900261SA1-0179REMSYN023222// 01017 333   91105
0050010010999991988011515004+70933-008667FM-12+0009ENJA V0202101N00211004201CN0750001N9-00361-00671101531ADDAG12000GF108991081051004501999999MD1410001+9999
0111010010999991988011518004+70933-008667FM-12+0009ENJA V0201501N00151004201CN0750001N9-00251-00651101501ADDAA106000091AG14000GF107991071051004501999999KA1120M-00201MD1810031+9999OA149900261REMSYN017333   11020 91105
0050010010999991988011521004+70933-008667FM-12+0009ENJA V0202301N00151004201CN0750001N9-00131-00561101491ADDAG12000GF108991081051004501999999MD1710011+9999
0114010010999991988011600004+70933-008667FM-12+0009ENJA V0201901N00311024001CN0050001N9-00131-00161101431ADDAA106000391AG10000AY171061AY221061GF108991041061004501081999MD1710061+9999MW1701OA149900411REMSYN011333   91108
0088010010999991988011603004+70933-008667FM-12+0009ENJA V0202001N00211000301CN0005001N9-00191-00211101341ADDAG12000AY171031AY241031GA1091+999999999GF109991091999999999999999MD1710091+9999MW1711
0149010010999991988011606004+70933-008667FM-12+0009ENJA V0202001N00151000301CN0005001N9-00151-00171101231ADDAA199001091AG10000AY151061AY241061GA1091+999999999GF109991091999999999999999KA1120N-00871MD1710111+9999MW1561OA149900411REMSYN017333   21087 91108
0088010010999991988011609004+70933-008667FM-12+0009ENJA V0202101N00361000301CN0004001N9-00111-00131101091ADDAG12000AY151031AY241031GA1091+999999999GF109991091999999999999999MD1710141+9999MW1471
0111010010999991988011612004+70933-008667FM-12+0009ENJA V0201901N00771000601CN0020001N9-00011-00021100791ADDAA106000591AG10000AY151061AY241061GF108991081061000751999999MD1710301+9999MW1501SA1-0119REMSYN011222// 01011
0072010010999991988011615004+70933-008667FM-12+0009ENJA V0201801N00671000601CN0030001N9-00011-00021100711ADDAG12000AY151031AY241031GF108991081061000751999999MD1710081+9999MW1511
0133010010999991988011618004+70933-008667FM-12+0009ENJA V0202001N00671001201CN0030001N9+00031+00021100431ADDAA199001091AG10000AY151061AY241061GF108991081061001501999999KA1120M+00061MD1710031+9999MW1511OA149901391REMSYN017333   10006 91127
0072010010999991988011621004+70933-008667FM-12+0009ENJA V0201901N00621001201CN0030001N9+00031+00021100261ADDAG12000AY151031AY241031GF108991081061001501999999MD1710171+9999MW1511
0114010010999991988011700004+70933-008667FM-12+0009ENJA V0201701N00621001201CN0035001N9+00051+00041100111ADDAA106000391AG10000AY151061AY241061GF108991081061001501999999MD1710151+9999MW1511OA149901441REMSYN011333   91128
0072010010999991988011703004+70933-008667FM-12+0009ENJA V0202001N00721001201CN0040001N9+00071+00061099891ADDAG12000AY151031AY241031GF108991081061001501999999MD1710221+9999MW1511
0133010010999991988011706004+70933-008667FM-12+0009ENJA V0201801N00981001201CN0040001N9+00081+00071099641ADDAA199000591AG10000AY151061AY241061GF108991081061001501999999KA1120N+00021MD1710251+9999MW1501OA149901441REMSYN017333   20002 91128
0072010010999991988011709004+70933-008667FM-12+0009ENJA V0201901N00511001201CN0030001N9-00011-00021099631ADDAG12000AY151031AY241031GF108991081061001501999999MD1510011+9999MW1511
0134010010999991988011712004+70933-008667FM-12+0009ENJA V0202101N00261002101CN0050001N9-00061-00071099581ADDAA106000591AG10001AY171061AY221061GF108991081071002501999999MD1810051+9999MW1681OA149901541SA1-0179REMSYN023222// 01017 333   91130
0072010010999991988011715004+70933-008667FM-12+0009ENJA V0201801N00261002101CN0060001N9-00111-00121099451ADDAG12000AY171031AY221031GF108991081071002501999999MD1710131+9999MW1711
0133010010999991988011718004+70933-008667FM-12+0009ENJA V0202701N01181002101CN0060001N9-00151-00701099321ADDAA199001091AG10000AY171061AY231061GF107991061071002501999999KA1120M+00081MD1710131+9999MW1361OA149901391REMSYN017333   10008 91127
0072010010999991988011721004+70933-008667FM-12+0009ENJA V0202701N00981220001CN0300001N9-00201-00621099361ADDAG12000AY131031AY211031GF103991031061002501001001MD1310041+9999MW1361
0114010010999991988011800004+70933-008667FM-12+0009ENJA V0202301N00621007501CN0300001N9-00141-00541099451ADDAA106999929AG10000AY131061AY211061GF108991081051008001999999MD1210091+9999MW1781OA149901851REMSYN011333   91136
0072010010999991988011803004+70933-008667FM-12+0009ENJA V0202601N00871220001CN0300001N9-00241-00661099531ADDAG12000AY181031AY211031GF102991021051008001001001MD1210081+9999MW1011
0152010010999991988011806004+70933-008667FM-12+0009ENJA V0202401N00511220001CN0300001N9-00211-00701099631ADDAA199000191AG10000AY181061AY211061GF102991021051008001001001KA1120N+99999MD1210101+9999MW1021OA149901541REMSYN017333   21010 91130EQDQ01 -00102ATMN  
0050010010999991988011809004+70933-008667FM-12+0009ENJA V0202101N00411220001CN0300001N9-00211-00541099801ADDAG12000GF104991041051008001001001MD1210171+9999
0112010010999991988011812004+70933-008667FM-12+0009ENJA V0201801N00671007501CN0500001N9-00151-00291099721ADDAA106000091AG14000GF106991051051008001041061MD1810081+9999OA149900821SA1-0189REMSYN023222// 01018 333   91116
0072010010999991988011815004+70933-008667FM-12+0009ENJA V0201801N00981002101CN0045001N9-00041-00071099421ADDAG12000AY181031AY221031GF108991081071002501999999MD1710301+9999MW1781
0199010010999991988011818004+70933-008667FM-12+0009ENJA V0202001N00511014401CN0080001N9-00081-00091099211ADDAA199000191AG10000AY171061AY221061GA1011+003009079GA2041+006009059GA3061+014409059GF108991081061002501999999KA1120M+00351MD1610211+9999MW1101OA149901751REMSYN035333   10035 81710 84620 86648 91134
0050010010999991988011821004+70933-008667FM-12+0009ENJA V0202101N00671220001CN0300001N9-00081-00281099191ADDAG12000GF102991021061002501001001MD1710021+9999
0092010010999991988011900004+70933-008667FM-12+0009ENJA V0202101N00571002101CN0300001N9-00111-00411099181ADDAA106000091AG14000GF105991051061002501001001MD1710011+9999OA149901031REMSYN011333   91120
0072010010999991988011903004+70933-008667FM-12+0009ENJA V0202701N01131002101CN0200001N9-00451-01031099191ADDAG12000AY131031AY221031GF106991061051002501001001MD1210011+9999MW1361
0133010010999991988011906004+70933-008667FM-12+0009ENJA V0202801N01541002101CN0045001N9-00961-01311099181ADDAA199000191AG10000AY131061AY221061GF106991061051002501001001KA1120N-00971MD1710011+9999MW1381OA149902421REMSYN017333   21097 91147
0072010010999991988011909004+70933-008667FM-12+0009ENJA V0202901N01751220001CN0020001N9-01231-01411099421ADDAG12000AY131031AY221031GF104991041061004501001001MD1310241+9999MW1381
0134010010999991988011912004+70933-008667FM-12+0009ENJA V0203001N02061220001CN0020001N9-01341-01501099571ADDAA106000591AG10000AY181061AY231061GF104991041061004501001001MD1210151+9999MW1381OA149902471SA1-0159REMSYN023222// 01015 333   91148
0072010010999991988011915004+70933-008667FM-12+0009ENJA V0203101N01441004201CN0020001N9-01351-01511099841ADDAG12000AY181031AY231031GF105991051061004501001001MD1210271+9999MW1851
0133010010999991988011918004+70933-008667FM-12+0009ENJA V0203101N01081220001CN0045001N9-01401-01511100041ADDAA199001091AG10000AY181061AY231061GF104991041061004501001001KA1120M-00961MD1210201+9999MW1381OA149902521REMSYN017333   11096 91149
0072010010999991988011921004+70933-008667FM-12+0009ENJA V0203101N00981004201CN0100001N9-01431-01561100211ADDAG12000AY171031AY231031GF105991051061004501001001MD1210171+9999MW1701
0083010010999991988012000004+70933-008667FM-12+0009ENJA V0203401N00621220001CN0200001N9-01391-01511100241ADDAA106999929AG10000AY171061AY231061GF102991021061004501001001MD1210031+9999MW1771
0072010010999991988012003004+70933-008667FM-12+0009ENJA V0203601N00721220001CN0200001N9-01421-01621100161ADDAG12000AY171031AY231031GF102991021061004501001001MD1010081+9999MW1771
0133010010999991988012006004+70933-008667FM-12+0009ENJA V0203401N01081220001CN0100001N9-01431-01671100001ADDAA199000191AG10000AY171061AY231061GF102991021061004501001001KA1120N-01471MD1710161+9999MW1771OA149901651REMSYN017333   21147 91132
0072010010999991988012009004+70933-008667FM-12+0009ENJA V0203601N01541220001CN0040001N9-01461-01721099801ADDAG12000AY171031AY231031GF103991031061004501001001MD1710201+9999MW1771
0134010010999991988012012004+70933-008667FM-12+0009ENJA V0203401N01901001201CN0050001N9-01481-01771099601ADDAA106000391AG10000AY171061AY231061GF107991061061001501051999MD1710201+9999MW1381OA149902681SA1-0189REMSYN023222// 01018 333   91152
0072010010999991988012015004+70933-008667FM-12+0009ENJA V0203401N02061001201CN0045001N9-01451-01691099411ADDAG12000AY171031AY231031GF107991061061001501051999MD1710191+9999MW1381
0149010010999991988012018004+70933-008667FM-12+0009ENJA V0203401N02001000301CN0002001N9-01451-01641099361ADDAA199000591AG10000AY131061AY221061GA1091+999999999GF109991091999999999999999KA1120M-01391MD1710051+9999MW1391OA149903041REMSYN017333   11139 91159
0072010010999991988012021004+70933-008667FM-12+0009ENJA V0203601N02211220001CN0200001N9-01531-01691099271ADDAG12000AY131031AY211031GF102991021061004501001001MD1710091+9999MW1381
0114010010999991988012100004+70933-008667FM-12+0009ENJA V0203401N01951220001CN0030001N9-01501-01721099351ADDAA106000091AG14000AY131061AY211061GF103991031061004501001001MD1210081+9999MW1381OA149903091REMSYN011333   91160
0072010010999991988012103004+70933-008667FM-12+0009ENJA V0203501N01951220001CN0030001N9-01491-01701099401ADDAG11000AY131031AY211031GF103991031061004501001001MD1210051+9999MW1381
0149010010999991988012106004+70933-008667FM-12+0009ENJA V0203501N01801000301CN0005001N9-01411-01621099471ADDAA199000391AG10000AY181061AY231061GA1091+999999999GF109991091999999999999999KA1120N-01561MD1210071+9999MW1851OA149902881REMSYN017333   21156 91156
0088010010999991988012109004+70933-008667FM-12+0009ENJA V0203501N02061000301CN0005001N9-01441-01661099651ADDAG12000AY181031AY231031GA1091+999999999GF109991091999999999999999MD1210181+9999MW1851
0111010010999991988012112004+70933-008667FM-12+0009ENJA V0203501N01901002101CN0030001N9-01571-01821099751ADDAA199000391AG10000AY181061AY231061GF107991071061002501999999MD1210101+9999MW1381SA1-0199REMSYN011222// 01019
0072010010999991988012115004+70933-008667FM-12+0009ENJA V0203401N01901220001CN0004001N9-01551-01821099841ADDAG12000AY131031AY221031GF104991041061002501001001MD1210091+9999MW1381
0133010010999991988012118004+70933-008667FM-12+0009ENJA V0203301N02161002101CN0010001N9-01611-01821099811ADDAA199000591AG10000AY181061AY231061GF105991051061002501001001KA1120M-01371MD1810031+9999MW1381OA149902991REMSYN017333   11137 91158
0091010010999991988012121004+70933-008667FM-12+0009ENJA V0203301N02161220001CN0030001N9-01601-01791099781ADDAG12000AY131031AY211031GF104991999061002501001001MD1710031+9999MW1381EQDQ01+000032SCOTLC
0130010010999991988012200004+70933-008667FM-12+0009ENJA V0203401N01701000301CN0005001N9-01401-01571099851ADDAA106999929AG10000AY181061AY231061GA1091+999999999GF109991091999999999999999MD1310071+9999MW1851OA149903091REMSYN011333   91160
0088010010999991988012203004+70933-008667FM-12+0009ENJA V0203401N01291000301CN0005001N9-01141-01311099741ADDAG12000AY181031AY231031GA1091+999999999GF109991091999999999999999MD1810111+9999MW1851
0133010010999991988012206004+70933-008667FM-12+0009ENJA V0203401N01231220001CN0020001N9-01131-01291099781ADDAA199000391AG10000AY181061AY231061GF104991041061002501001001KA1120N-01651MD1310041+9999MW1381OA149902631REMSYN017333   21165 91151
0072010010999991988012209004+70933-008667FM-12+0009ENJA V0203401N01441024001CN0020001N9-01081-01251099971ADDAG12000AY181031AY231031GF106991041091002501051001MD1210191+9999MW1851
0134010010999991988012212004+70933-008667FM-12+0009ENJA V0203301N01541002101CN0030001N9-01291-01471100001ADDAA106999929AG10000AY131061AY221061GF106991051061002501051001MD1210031+9999MW1361OA149902371SA1-0189REMSYN023222// 01018 333   91146
0091010010999991988012215004+70933-008667FM-12+0009ENJA V0203401N01701002101CN0030001N9-01511-01691100101ADDAG12000AY131031AY221031GF107991999061002501001001MD1210101+9999MW1361EQDQ01+000062SCOTLC
0133010010999991988012218004+70933-008667FM-12+0009ENJA V0203401N01541002101CN0025001N9-01641-01851100241ADDAA199999929AG10000AY131061AY221061GF108991081061002501999999KA1120M-00961MD1210141+9999MW1361OA149902571REMSYN017333   11096 91150
0072010010999991988012221004+70933-008667FM-12+0009ENJA V0203401N01441002101CN0030001N9-01811-02011100411ADDAG12000AY131031AY221031GF108991081061002501999999MD1210171+9999MW1381
0130010010999991988012300004+70933-008667FM-12+0009ENJA V0203401N01641000301CN0004001N9-01921-02131100391ADDAA106000191AG10000AY171061AY231061GA1091+999999999GF109991091999999999999999MD1810021+9999MW1711OA149902571REMSYN011333   91150
0072010010999991988012303004+70933-008667FM-12+0009ENJA V0203401N01541220001CN0015001N9-02091-02351100481ADDAG12000AY171031AY231031GF104991041061002501001001MD1310091+9999MW1361
0133010010999991988012306004+70933-008667FM-12+0009ENJA V0203301N01541220001CN0015001N9-02271-02561100571ADDAA199000591AG10000AY171061AY231061GF104991041061002501001001KA1120N-02271MD1210091+9999MW1361OA149902881REMSYN017333   21227 91156
0072010010999991988012309004+70933-008667FM-12+0009ENJA V0203301N01801002101CN0030001N9-02361-02701100701ADDAG12000AY171031AY231031GF107991061061002501999999MD1210131+9999MW1361
0134010010999991988012312004+70933-008667FM-12+0009ENJA V0203301N01641001201CN0010001N9-02441-02771100731ADDAA106000191AG10000AY171061AY231061GF107991061061001501999999MD1110031+9999MW1361OA149902991SA1-0179REMSYN023222// 01017 333   91158
0072010010999991988012315004+70933-008667FM-12+0009ENJA V0203201N01751220001CN0080001N9-02481-02851100701ADDAG12000AY131031AY211031GF103991031061002501001001MD1610031+9999MW1361
0133010010999991988012318004+70933-008667FM-12+0009ENJA V0203201N01751220001CN0750001N9-02461-02801100631ADDAA199000191AG10000AY131061AY211061GF102991021061002501001001KA1120M-02201MD1710071+9999MW1011OA149903041REMSYN017333   11220 91159
0050010010999991988012321004+70933-008667FM-12+0009ENJA V0203201N02061220001CN0300001N9-02411-02741100571ADDAG12000GF102991021061002501001001MD1710061+9999
0114010010999991988012400004+70933-008667FM-12+0009ENJA V0203301N02001220001CN0300001N9-02361-02641100581ADDAA106999929AG10000AY131061AY221061GF103991031061002501001001MD1210011+9999MW1371OA149903141REMSYN011333   91161
0072010010999991988012403004+70933-008667FM-12+0009ENJA V0203301N02061220001CN0300001N9-02361-02621100571ADDAG12000AY131031AY221031GF103991031061002501001001MD1410001+9999MW1361
0133010010999991988012406004+70933-008667FM-12+0009ENJA V0203301N01951220001CN0300001N9-02371-02631100531ADDAA199999929AG10000AY131061AY221061GF103991031061002501001001KA1120N-02481MD1710041+9999MW1361OA149902991REMSYN017333   21248 91158
0072010010999991988012409004+70933-008667FM-12+0009ENJA V0203201N01541002101CN0020001N9-02231-02481100611ADDAG12000AY131031AY211031GF105991051061002501001001MD1310081+9999MW1701
0134010010999991988012412004+70933-008667FM-12+0009ENJA V0203201N01131002101CN0020001N9-02111-02321100711ADDAA106000591AG10000AY171061AY231061GF107991051061002501001081MD1210101+9999MW1101OA149902731SA1-0169REMSYN023222// 01016 333   91153
0072010010999991988012415004+70933-008667FM-12+0009ENJA V0203301N00721024001CN0050001N9-02161-02411100841ADDAG12000AY121031AY211031GF105991041051004501041001MD1210131+9999MW1101
0133010010999991988012418004+70933-008667FM-12+0009ENJA V0203101N00571220001CN0750001N9-02141-02541100901ADDAA199000591AG10000AY141061AY221061GF101991011051004501001001KA1120M-02101MD1110061+9999MW1021OA149901801REMSYN017333   11210 91135
0050010010999991988012421004+70933-008667FM-12+0009ENJA V0203301N00721220001CN0750001N9-02111-02561100921ADDAG12000GF101991011051004501001001MD1110021+9999
0061010010999991988012500004+70933-008667FM-12+0009ENJA V0202901N00771220001CN0750001N9-01961-02971100861ADDAA106000091AG14000GF101991011051004501001001MD1010061+9999
0069010010999991988012503004+70933-008667FM-12+0009ENJA V0202901N00621220001CN0750001N9-01841-03201999999ADDAG12000GF101991011051004501001001MD1010912+9999EQDQ01+000912APC3  
0146010010999991988012506004+70933-008667FM-12+0009ENJA V0202901N00511220001CN0750001N9-01691-03231999999ADDAA106000091AG14000GF101991011051004501001001KA1120N-02161MD1010842+9999OA149901341REMSYN017333   21216 91126EQDQ01+100063APOSLPQ02+000842APC3  
0050010010999991988012509004+70933-008667FM-12+0009ENJA V0203101N00101220001CN0750001N9-01601-02411100881ADDAG12000GF102991021051004501001001MD1210041+9999
0112010010999991988012512004+70933-008667FM-12+0009ENJA V0209991C00001002101CN0750001N9-01521-02221100931ADDAA106000091AG14000GF107991071051002501999999MD1210051+9999OA149900621SA1-0169REMSYN023222// 01016 333   91112
0072010010999991988012515004+70933-008667FM-12+0009ENJA V0201601N00571002101CN0100001N9-01121-01291100821ADDAG12000AY171031AY221031GF108991081051002501999999MD1710111+9999MW1701
0133010010999991988012518004+70933-008667FM-12+0009ENJA V0202901N00261002101CN0005001N9-01051-01111100661ADDAA199001091AG10001AY171061AY221061GF108991081051002501999999KA1120M-01041MD1710161+9999MW1731OA149900821REMSYN017333   11104 91116
0072010010999991988012521004+70933-008667FM-12+0009ENJA V0202301N00311002101CN0005001N9-00761-00871100561ADDAG12001AY171031AY221031GF108991081051002501999999MD1710101+9999MW1731
0114010010999991988012600004+70933-008667FM-12+0009ENJA V0209991C00001002101CN0030001N9-00991-01111100621ADDAA106003091AG10001AY171061AY221061GF108991081051002501999999MD1310061+9999MW1731OA149900821REMSYN011333   91116
0072010010999991988012603004+70933-008667FM-12+0009ENJA V0203201N00311004201CN0050001N9-01101-01621100641ADDAG12000AY171031AY221031GF108991081051004501999999MD1210021+9999MW1701
0149010010999991988012606004+70933-008667FM-12+0009ENJA V0203001N01641000151CN0001001N9-01551-01671100831ADDAA199003091AG10000AY171061AY231061GA1091+999999999GF109991091999999999999999KA1120N-01581MD1210191+9999MW1391OA149902061REMSYN017333   21158 91140
0088010010999991988012609004+70933-008667FM-12+0009ENJA V0203301N01181000151CN0001001N9-01241-01361100991ADDAG12000AY131031AY221031GA1091+999999999GF109991091999999999999999MD1210161+9999MW1391
0127010010999991988012612004+70933-008667FM-12+0009ENJA V0203401N01641000151CN0001001N9-01341-01461101331ADDAA106002091AG13000AY131061AY221061GA1091+999999999GF109991091999999999999999MD1210341+9999MW1391SA1-0189REMSYN011222// 01018
0072010010999991988012615004+70933-008667FM-12+0009ENJA V0203301N01391220001CN0005001N9-01561-01781101621ADDAG12000AY131031AY221031GF103991031061000751001001MD1210291+9999MW1381
0133010010999991988012618004+70933-008667FM-12+0009ENJA V0203301N01081220001CN0200001N9-01681-01991101901ADDAA199002091AG10000AY131061AY201061GF103991031061000751001001KA1120M-01191MD1210281+9999MW1361OA149902321REMSYN017333   11119 91145
0072010010999991988012621004+70933-008667FM-12+0009ENJA V0203301N00981220001CN0300001N9-01611-02301102081ADDAG12000AY131031AY201031GF102991021061002501001001MD1210181+9999MW1361
0092010010999991988012700004+70933-008667FM-12+0009ENJA V0209991C00001220001CN0750001N9-01511-02251102121ADDAA106000391AG10000GF100991001001999999001001MD1110041+9999OA149901601REMSYN011333   91131
0050010010999991988012703004+70933-008667FM-12+0009ENJA V0209991C00001220001CN0750001N9-01341-01701102191ADDAG12000GF101991011001017501041001MD1210071+9999
0111010010999991988012706004+70933-008667FM-12+0009ENJA V0202501N00361220001CN0750001N9-01191-01511102161ADDAA199000391AG10000GF100991001001999999001001KA1120N-01731MD1810031+9999OA149900461REMSYN017333   21173 91109
0050010010999991988012709004+70933-008667FM-12+0009ENJA V0202801N00411220001CN0750001N9-01091-01291102161ADDAG12000GF103991031051012501001001MD1410001+9999
0112010010999991988012712004+70933-008667FM-12+0009ENJA V0202301N00511220001CN0750001N9-01071-01291102111ADDAA106000091AG14000GF102991011051008001001081MD1710051+9999OA149900621SA1-0179REMSYN023222// 01017 333   91112
0050010010999991988012715004+70933-008667FM-12+0009ENJA V0201401N00511220001CN0300001N9-00791-00881102051ADDAG12000GF104991031061004501051081MD1710051+9999
0111010010999991988012718004+70933-008667FM-12+0009ENJA V0201501N00411007501CN0500001N9-00541-00581101921ADDAA106000091AG14000GF107991071051008001999999KA1120M-00541MD1710131+9999OA149900571REMSYN017333   11054 91111
0050010010999991988012721004+70933-008667FM-12+0009ENJA V0201801N00821007501CN0500001N9-00281-00471101861ADDAG12000GF107991071051008001999999MD1610061+9999
0092010010999991988012800004+70933-008667FM-12+0009ENJA V0201801N00931007501CN0500001N9-00211-00541101781ADDAA106000091AG14000GF107991071051008001999999MD1710081+9999OA149901291REMSYN011333   91125
0050010010999991988012803004+70933-008667FM-12+0009ENJA V0201801N00671220001CN0500001N9-00271-00411101721ADDAG12000GF103991031051008001001001MD1710061+9999
0111010010999991988012806004+70933-008667FM-12+0009ENJA V0201401N00311220001CN0500001N9-00351-00481101701ADDAA106000091AG14000GF101991011051008001001001KA1120N-00541MD1610021+9999OA149901291REMSYN017333   21054 91125
0050010010999991988012809004+70933-008667FM-12+0009ENJA V0202001N00361220001CN0500001N9-00371-00491101701ADDAG12000GF104991041051008001001001MD1410001+9999
0112010010999991988012812004+70933-008667FM-12+0009ENJA V0202001N00361007501CN0500001N9-00271-00571101731ADDAA106000091AG14000GF106991061051008001001001MD1310031+9999OA149900821SA1-0159REMSYN023222// 01015 333   91116
0050010010999991988012815004+70933-008667FM-12+0009ENJA V0201501N00411007501CN0500001N9-00261-00641101691ADDAG12000GF106991061051008001001001MD1810041+9999
0111010010999991988012818004+70933-008667FM-12+0009ENJA V0209991C00001012001CN0500001N9-00251-00671101661ADDAA106000091AG14000GF107991071051012501999999KA1120M-00221MD1710031+9999OA149900571REMSYN017333   11022 91111
0050010010999991988012821004+70933-008667FM-12+0009ENJA V0200301N00311012001CN0500001N9-00321-00841101621ADDAG12000GF106991061051012501001001MD1710041+9999
0092010010999991988012900004+70933-008667FM-12+0009ENJA V0200801N00261012001CN0550001N9-00251-00921101521ADDAA106000091AG14000GF107991071051012501001001MD1710101+9999OA149900721REMSYN011333   91114
0050010010999991988012903004+70933-008667FM-12+0009ENJA V0200801N01031012001CN0300001N9-00191-00861101331ADDAG12000GF107991071051012501001001MD1710191+9999
0111010010999991988012906004+70933-008667FM-12+0009ENJA V0200301N00571220001CN0750001N9-00291-00761101111ADDAA106000091AG14000GF104991041051004501001001KA1120N-00381MD1710221+9999OA149901651REMSYN017333   21038 91132
0072010010999991988012909004+70933-008667FM-12+0009ENJA V0200601N00931024001CN0060001N9-00161-00381100961ADDAG12000AY121031AY221031GF108991041051008001021999MD1710151+9999MW1151
0134010010999991988012912004+70933-008667FM-12+0009ENJA V0200501N01181024001CN0020001N9-00181-00281100851ADDAA106999929AG10000AY121061AY221061GF108991041071004501021999MD1710111+9999MW1701OA149901801SA1-0159REMSYN023222// 01015 333   91135
0072010010999991988012915004+70933-008667FM-12+0009ENJA V0200301N00871024001CN0100001N9-00101-00271100741ADDAG12000AY171031AY221031GF106991041051004501031001MD1710111+9999MW1101
0133010010999991988012918004+70933-008667FM-12+0009ENJA V0200901N00721002101CN0050001N9-00121-00281100661ADDAA199999929AG10001AY171061AY231061GF107991061071002501051999KA1120M-00041MD1710081+9999MW1681OA149901801REMSYN017333   11004 91135
0072010010999991988012921004+70933-008667FM-12+0009ENJA V0200601N00721004201CN0100001N9-00051-00241100671ADDAG12000AY171031AY231031GF105991051051004501001001MD1210011+9999MW1011
0083010010999991988013000004+70933-008667FM-12+0009ENJA V0200401N00721004201CN0100001N9-00031-00171100621ADDAA106999929AG10000AY171061AY221061GF108991081051004501999999MD1010051+9999MW1711
0072010010999991988013003004+70933-008667FM-12+0009ENJA V0200701N00981004201CN0100001N9-00031-00151100601ADDAG12000AY171031AY221031GF107991071051004501999999MD1710021+9999MW1711
0133010010999991988013006004+70933-008667FM-12+0009ENJA V0200601N00931004201CN0100001N9-00041-00151100621ADDAA199000191AG10000AY171061AY221061GF108991081051004501999999KA1120N-00171MD1310021+9999MW1711OA149901701REMSYN017333   21017 91133
0072010010999991988013009004+70933-008667FM-12+0009ENJA V0201001N00981004201CN0100001N9-00011-00151100751ADDAG12001AY171031AY221031GF108991081051004501999999MD1210131+9999MW1681
0134010010999991988013012004+70933-008667FM-12+0009ENJA V0200901N01031004201CN0100001N9-00011-00111100811ADDAA106999929AG10001AY171061AY221061GF107991071061004501999999MD1110061+9999MW1681OA149901601SA1-0159REMSYN023222// 01015 333   91131
0072010010999991988013015004+70933-008667FM-12+0009ENJA V0200901N01131004201CN0050001N9+00011-00151100881ADDAG12001AY171031AY221031GF107991071061004501999999MD1110071+9999MW1681
0133010010999991988013018004+70933-008667FM-12+0009ENJA V0200601N01181004201CN0100001N9-00021-00161100941ADDAA199000191AG10001AY171061AY221061GF108991081051004501999999KA1120M+00021MD1210061+9999MW1681OA149901851REMSYN017333   10002 91136
0072010010999991988013021004+70933-008667FM-12+0009ENJA V0200701N01081004201CN0100001N9-00021-00211101101ADDAG12000AY171031AY221031GF108991081051004501999999MD1210161+9999MW1711
0114010010999991988013100004+70933-008667FM-12+0009ENJA V0200701N00721004201CN0100001N9-00031-00251101181ADDAA106999929AG10000AY171061AY221061GF108991081051004501999999MD1210081+9999MW1701OA149901851REMSYN011333   91136
0072010010999991988013103004+70933-008667FM-12+0009ENJA V0200701N00931004201CN0100001N9-00031-00251101221ADDAG12000AY171031AY221031GF108991081051004501999999MD1210041+9999MW1701
0133010010999991988013106004+70933-008667FM-12+0009ENJA V0200701N00621004201CN0200001N9+99999+99999101221ADDAA199999929AG10000AY171061AY221061GF108991081051004501999999KA1120N-00091MD1410001+9999MW1021OA149901341REMSYN017333   21009 91126
0072010010999991988013109004+70933-008667FM-12+0009ENJA V0200601N00621004201CN0200001N9+00001-00101101251ADDAG12000AY171031AY221031GF108991081051004501999999MD1310031+9999MW1721
0111010010999991988013112004+70933-008667FM-12+0009ENJA V0200601N00461002101CN0030001N9+00011-00061101261ADDAA106000191AG10000AY171061AY221061GF108991081061002501999999MD1210011+9999MW1711SA1-0189REMSYN011222// 01018
0072010010999991988013115004+70933-008667FM-12+0009ENJA V0200601N00461002101CN0030001N9+00001-00041101241ADDAG12000AY171031AY221031GF108991081061002501999999MD1810021+9999MW1711
0133010010999991988013118004+70933-008667FM-12+0009ENJA V0200801N00311004201CN0050001N9+00001-00081101151ADDAA199000191AG10000AY171061AY221061GF107991071061004501999999KA1120M+00021MD1710091+9999MW1711OA149900771REMSYN017333   10002 91115
0072010010999991988013121004+70933-008667FM-12+0009ENJA V0200601N00211004201CN0050001N9+00021-00011101141ADDAG12000AY171031AY221031GF107991071061004501999999MD1610011+9999MW1711
0114010010999991988020100004+70933-008667FM-12+0009ENJA V0200801N00361002101CN0050001N9+00001-00031101071ADDAA106000191AG10000AY171061AY221061GF107991071061002501999999MD1710071+9999MW1711OA149900621REMSYN011333   91112
0072010010999991988020103004+70933-008667FM-12+0009ENJA V0200801N00411002101CN0050001N9+00001-00061100961ADDAG12000AY171031AY221031GF108991081061002501999999MD1710111+9999MW1711
0139010010999991988020106004+70933-008667FM-12+0009ENJA V0200801N00151007501CN0300001N9+00001-00251100861ADDAA199000391AG10000AY171061AY221061GF107991071051008001999999KA1120N-00021MD1710101+9999MW1021OA149900881REMSYN023333   21002 7204/ 91117
0050010010999991988020109004+70933-008667FM-12+0009ENJA V0200701N00411007501CN0300001N9-00041-00361100771ADDAG12000GF107991071051008001999999MD1710091+9999
0112010010999991988020112004+70933-008667FM-12+0009ENJA V0200601N00211009001CN0300001N9-00051-00371100671ADDAA106000091AG14000GF107991071081004501999999MD1710101+9999OA149901391SA1-0189REMSYN023222// 01018 333   91127
0050010010999991988020115004+70933-008667FM-12+0009ENJA V0200301N00211009001CN0300001N9-00031-00441100541ADDAG12000GF106991061081004501999999MD1710131+9999
0133010010999991988020118004+70933-008667FM-12+0009ENJA V0200101N00461009001CN0050001N9-00091-00331100401ADDAA199999929AG10000AY171061AY221061GF107991071081004501999999KA1120M+00041MD1710141+9999MW1021OA149901441REMSYN017333   10004 91128
0072010010999991988020121004+70933-008667FM-12+0009ENJA V0200301N00621004201CN0050001N9-00091-00341100321ADDAG12000AY171031AY221031GF107991071061004501999999MD1710081+9999MW1781
0114010010999991988020200004+70933-008667FM-12+0009ENJA V0200901N00311024001CN0080001N9-00061-00381100271ADDAA106000191AG10000AY181061AY221061GF107991021091008001061001MD1710051+9999MW1261OA149901441REMSYN011333   91128
0072010010999991988020203004+70933-008667FM-12+0009ENJA V0203001N00461024001CN0080001N9-00081-00481100171ADDAG12000AY181031AY221031GF107991011091008001061001MD1710101+9999MW1101
0152010010999991988020206004+70933-008667FM-12+0009ENJA V0203501N00621012001CN0200001N9-00171-00501100111ADDAA199000191AG10000AY181061AY221061GF107991071081008001001001KA1120N+99999MD1710061+9999MW1021OA149901901REMSYN017333   21000 91137EQDQ01 +00002ATMN  
0072010010999991988020209004+70933-008667FM-12+0009ENJA V0203401N00621024001CN0200001N9-00211-00471100141ADDAG12000AY181031AY231031GF106991021091008001061001MD1510031+9999MW1261
0134010010999991988020212004+70933-008667FM-12+0009ENJA V0200101N01441024001CN0100001N9-00381-00551100141ADDAA106000191AG10000AY181061AY231061GF106991041061002501031001MD1410001+9999MW1361OA149902211SA1-0179REMSYN023222// 01017 333   91143
0072010010999991988020215004+70933-008667FM-12+0009ENJA V0203601N01131002101CN0060001N9-00401-00541100181ADDAG12000AY131031AY221031GF107991061061002501999999MD1310041+9999MW1361
0133010010999991988020218004+70933-008667FM-12+0009ENJA V0203601N01341220001CN0030001N9-00441-00561100161ADDAA199000391AG10000AY181061AY231061GF104991041061004501001001KA1120M-00091MD1810021+9999MW1361OA149902471REMSYN017333   11009 91148
0072010010999991988020221004+70933-008667FM-12+0009ENJA V0200201N01031024001CN0015001N9-00431-00511100221ADDAG12000AY181031AY231031GF106991021091004501061001MD1310061+9999MW1851
0114010010999991988020300004+70933-008667FM-12+0009ENJA V0200401N017019999999N0015001N9-00461-00631100291ADDAA106000191AG10000AY181061AY231061GF107991999999002501999999MD1210071+9999MW1851OA149902321REMSYN011333   91145
0072010010999991988020303004+70933-008667FM-12+0009ENJA V0200501N01391006001CN0015001N9-00541-00731100431ADDAG12000AY181031AY231031GF108991081081002501999999MD1210141+9999MW1851
0133010010999991988020306004+70933-008667FM-12+0009ENJA V0200501N01441006001CN0040001N9-00571-00821100411ADDAA199000391AG10000AY181061AY231061GF106991061081002501001001KA1120N-00601MD1710021+9999MW1381OA149902571REMSYN017333   21060 91150
0072010010999991988020309004+70933-008667FM-12+0009ENJA V0200201N01851220001CN0060001N9-00721-01051100551ADDAG12000AY171031AY231031GF103991011061002501031081MD1310141+9999MW1361
0134010010999991988020312004+70933-008667FM-12+0009ENJA V0203501N01641002101CN0010001N9-01001-01151100661ADDAA106000391AG10000AY171061AY231061GF107991071061002501999999MD1210111+9999MW1391OA149902931SA1-0159REMSYN023222// 01015 333   91157
0072010010999991988020315004+70933-008667FM-12+0009ENJA V0203401N01641002101CN0010001N9-01171-01291100671ADDAG12000AY171031AY231031GF107991071061002501999999MD1110011+9999MW1391
0133010010999991988020318004+70933-008667FM-12+0009ENJA V0203601N01341002101CN0045001N9-00801-00911100591ADDAA199001091AG10000AY171061AY231061GF106991061061002501999999KA1120M-00541MD1710081+9999MW1701OA149902781REMSYN017333   11054 91154
0072010010999991988020321004+70933-008667FM-12+0009ENJA V0203601N01031002101CN0100001N9-00851-00951100791ADDAG12000AY171031AY231031GF107991071061002501999999MD1210201+9999MW1701
0083010010999991988020400004+70933-008667FM-12+0009ENJA V0203401N01031024001CN0200001N9-00951-01041100791ADDAA106000191AG10000AY171061AY231061GF106991041061002501031001MD1410001+9999MW1381
0072010010999991988020403004+70933-008667FM-12+0009ENJA V0203301N01181220001CN0200001N9-01151-01251100721ADDAG11000AY131031AY211031GF103991031061002501001001MD1810071+9999MW1381
0133010010999991988020406004+70933-008667FM-12+0009ENJA V0203401N01081220001CN0200001N9-01041-01211100641ADDAA199000191AG10000AY131061AY211061GF102991021061002501001001KA1120N-01181MD1710081+9999MW1381OA149901901REMSYN017333   21118 91137
0072010010999991988020409004+70933-008667FM-12+0009ENJA V0203401N01291220001CN0300001N9-01101-01321100631ADDAG12000AY131031AY211031GF103991031061002501001001MD1710011+9999MW1381
0134010010999991988020412004+70933-008667FM-12+0009ENJA V0203601N01391220001CN0250001N9-00971-01131100581ADDAA106000391AG10000AY131061AY221061GF102991021061002501001001MD1710051+9999MW1381OA149902061SA1-0189REMSYN023222// 01018 333   91140
0050010010999991988020415004+70933-008667FM-12+0009ENJA V0203601N01391220001CN0750001N9-00941-01211100621ADDAG12000GF103991021061002501031001MD1210041+9999
0133010010999991988020418004+70933-008667FM-12+0009ENJA V0203601N01341220001CN0300001N9-00981-01301100511ADDAA199000391AG10000AY131061AY201061GF103991011061002501031001KA1120M-00921MD1810111+9999MW1021OA149902261REMSYN017333   11092 91144
0072010010999991988020421004+70933-008667FM-12+0009ENJA V0203601N01441220001CN0750001N9-01001-01301100531ADDAG12000AY131031AY201031GF101991011061002501001001MD1510021+9999MW1381
0092010010999991988020500004+70933-008667FM-12+0009ENJA V0203601N01031220001CN0750001N9-01061-01311100541ADDAA106000091AG14000GF101991011061002501001001MD1210011+9999OA149902371REMSYN011333   91146
0050010010999991988020503004+70933-008667FM-12+0009ENJA V0203401N00931220001CN0750001N9-01051-01271100381ADDAG12000GF101991011061002501001001MD1710161+9999
0149010010999991988020506004+70933-008667FM-12+0009ENJA V0203601N01081000301CN0005001N9-00941-01101100341ADDAA199999929AG10000AY171061AY231061GA1091+999999999GF109991091999999999999999KA1120N-01111MD1710041+9999MW1361OA149902161REMSYN017333   21111 91142
0088010010999991988020509004+70933-008667FM-12+0009ENJA V0203401N01291000301CN0005001N9-00881-01001100111ADDAG12001AY171031AY231031GA1091+999999999GF109991091999999999999999MD1710231+9999MW1731
0127010010999991988020512004+70933-008667FM-12+0009ENJA V0203201N01391000301CN0002001N9-00811-00871099861ADDAA106002091AG10001AY171061AY231061GA1091+999999999GF109991091999999999999999MD1710251+9999MW1731SA1-0179REMSYN011222// 01017
0088010010999991988020515004+70933-008667FM-12+0009ENJA V0203301N01291000301CN0002001N9-00721-00771099501ADDAG12001AY171031AY231031GA1091+999999999GF109991091999999999999999MD1710361+9999MW1731
0149010010999991988020518004+70933-008667FM-12+0009ENJA V0203501N01291000301CN0002001N9-00501-00531099051ADDAA199004091AG10001AY181061AY231061GA1091+999999999GF109991091999999999999999KA1120M-00491MD1710351+9999MW1861OA149902161REMSYN017333   11049 91142
0088010010999991988020521004+70933-008667FM-12+0009ENJA V0203301N01441000301CN0002001N9-00421-00441098681ADDAG12000AY181031AY231031GA1091+999999999GF109991091999999999999999MD1710371+9999MW1851
0130010010999991988020600004+70933-008667FM-12+0009ENJA V0203601N01491000301CN0003001N9-00361-00381098451ADDAA106005091AG10001AY181061AY231061GA1091+999999999GF109991091999999999999999MD1710231+9999MW1731OA149902471REMSYN011333   91148
0088010010999991988020603004+70933-008667FM-12+0009ENJA V0203501N01291000301CN0002001N9-00301-00321098331ADDAG12001AY171031AY231031GA1091+999999999GF109991091999999999999999MD1610121+9999MW1731
0149010010999991988020606004+70933-008667FM-12+0009ENJA V0200101N01801000301CN0002001N9-00281-00301098541ADDAA199008091AG10001AY171061AY231061GA1091+999999999GF109991091999999999999999KA1120N-00511MD1310211+9999MW1731OA149902731REMSYN017333   21051 91153
0088010010999991988020609004+70933-008667FM-12+0009ENJA V0200101N01901000151CN0001001N9-00361-00401098781ADDAG12001AY181031AY231031GA1091+999999999GF109991091999999999999999MD1210241+9999MW1861
0150010010999991988020612004+70933-008667FM-12+0009ENJA V0200101N01541000301CN0002001N9-00401-00421098981ADDAA106002091AG10000AY181061AY231061GA1091+999999999GF109991091999999999999999MD1210111+9999MW1851OA149902931SA1-0179REMSYN023222// 01017 333   91157
0088010010999991988020615004+70933-008667FM-12+0009ENJA V0200101N01441000301CN0002001N9-00441-00461099091ADDAG12000AY181031AY231031GA1091+999999999GF109991091999999999999999MD1210101+9999MW1851
0149010010999991988020618004+70933-008667FM-12+0009ENJA V0203601N01751000151CN0001001N9-00501-00521099131ADDAA199006091AG10001AY181061AY231061GA1091+999999999GF109991091999999999999999KA1120M-00071MD1110141+9999MW1731OA149902571REMSYN017333   11007 91150
0088010010999991988020621004+70933-008667FM-12+0009ENJA V0203601N01541000151CN0001001N9-00541-00561099301ADDAG12001AY171031AY231031GA1091+999999999GF109991091999999999999999MD1210171+9999MW1731
0130010010999991988020700004+70933-008667FM-12+0009ENJA V0200101N01491000151CN0001001N9-00571-00591099351ADDAA106008091AG10001AY171061AY231061GA1091+999999999GF109991091999999999999999MD1110051+9999MW1751OA149902991REMSYN011333   91158
0088010010999991988020703004+70933-008667FM-12+0009ENJA V0200101N01391000151CN0001001N9-00591-00611099301ADDAG12001AY171031AY231031GA1091+999999999GF109991091999999999999999MD1810051+9999MW1751
0149010010999991988020706004+70933-008667FM-12+0009ENJA V0203601N01541000151CN0001001N9-00581-00601099221ADDAA199014091AG10001AY171061AY231061GA1091+999999999GF109991091999999999999999KA1120N-00591MD1710081+9999MW1751OA149902781REMSYN017333   21059 91154
0088010010999991988020709004+70933-008667FM-12+0009ENJA V0200101N01591000151CN0001001N9-00581-00601099181ADDAG12001AY171031AY231031GA1091+999999999GF109991091999999999999999MD1710041+9999MW1751
0134010010999991988020712004+70933-008667FM-12+0009ENJA V0200101N01231002101CN0005001N9-00551-00571099111ADDAA106002091AG10000AY171061AY231061GF107991051071002501061001MD1710071+9999MW1371OA149902681SA1-0179REMSYN023222// 01017 333   91152
0072010010999991988020715004+70933-008667FM-12+0009ENJA V0200101N01031009001CN0030001N9-00441-00461098981ADDAG12000AY171031AY231031GF106991051081004501071001MD1710131+9999MW1701
0133010010999991988020718004+70933-008667FM-12+0009ENJA V0203401N01131004201CN0040001N9-00421-00431098821ADDAA199002091AG10000AY171061AY231061GF108991081061004501999999KA1120M-00411MD1710161+9999MW1361OA149902161REMSYN017333   11041 91142
0072010010999991988020721004+70933-008667FM-12+0009ENJA V0203601N00931004201CN0010001N9-00301-00311098691ADDAG12000AY171031AY231031GF108991081071004501999999MD1710131+9999MW1711
0114010010999991988020800004+70933-008667FM-12+0009ENJA V0203401N00981002101CN0015001N9-00311-00321098541ADDAA106001091AG10000AY171061AY231061GF108991081071002501999999MD1710151+9999MW1701OA149901751REMSYN011333   91134
0072010010999991988020803004+70933-008667FM-12+0009ENJA V0200301N00621002101CN0040001N9-00161-00171098411ADDAG12000AY171031AY231031GF108991081071002501999999MD1710131+9999MW1701
0133010010999991988020806004+70933-008667FM-12+0009ENJA V0200601N00621002101CN0020001N9-00061-00071098301ADDAA199001091AG10001AY171061AY231061GF108991081071002501999999KA1120N-00421MD1710111+9999MW1681OA149901341REMSYN017333   21042 91126
0072010010999991988020809004+70933-008667FM-12+0009ENJA V0200701N00621004201CN0200001N9-00091-00101098211ADDAG12000AY171031AY221031GF107991061051004501031001MD1710091+9999MW1021
0134010010999991988020812004+70933-008667FM-12+0009ENJA V0200601N00411024001CN0200001N9-00101-00111098171ADDAA106000591AG10000AY181061AY271061GF107991021091004501061001MD1610041+9999MW1021OA149901541SA1-0169REMSYN023222// 01016 333   91130
0072010010999991988020815004+70933-008667FM-12+0009ENJA V0200601N00361024001CN0200001N9-00101-00271098121ADDAG12000AY121031AY221031GF106991021091004501061001MD1710051+9999MW1151
0111010010999991988020818004+70933-008667FM-12+0009ENJA V0200401N00311024001CN0550001N9-00111-00281098061ADDAA199000591AG10000GF107991021091004501061001KA1120M-00051MD1710061+9999OA149900771REMSYN017333   11005 91115
0072010010999991988020821004+70933-008667FM-12+0009ENJA V0201001N00511004201CN0750001N9-00141-00411098011ADDAG12000AY181031AY221031GF107991071051004501999999MD1710051+9999MW1021
0083010010999991988020900004+70933-008667FM-12+0009ENJA V0200101N00211220001CN0750001N9-00251-00431097861ADDAA106001091AG10000AY181061AY221061GF102991021051004501001001MD1710051+9999MW1021
0072010010999991988020903004+70933-008667FM-12+0009ENJA V0209991C00001004201CN0300001N9-00251-00431097831ADDAG12000AY181031AY221031GF107991071091004501999999MD1710031+9999MW1851
0133010010999991988020906004+70933-008667FM-12+0009ENJA V0201501N00211004201CN0300001N9-00281-00451097831ADDAA199000391AG10000AY181061AY221061GF107991071091004501999999KA1120N-00331MD1410001+9999MW1021OA149900261REMSYN017333   21033 91105
0072010010999991988020909004+70933-008667FM-12+0009ENJA V0202601N00151004201CN0750001N9-00411-00531098021ADDAG12000AY181031AY221031GF107991071051004501999999MD1210191+9999MW1021
0123010010999991988020912004+70933-008667FM-12+0009ENJA V0209991C00001004201CN0750001N9-00401-00641098081ADDAG12000AY181061AY221061GF107991061051004501031001MD1110061+9999MW1021OA149900261SA1-0169REMSYN023222// 01016 333   91105
0072010010999991988020915004+70933-008667FM-12+0009ENJA V0203301N00511002101CN0550001N9-00231-00391098031ADDAG12000AY181031AY221031GF107991071061002501999999MD1810051+9999MW1851
0133010010999991988020918004+70933-008667FM-12+0009ENJA V0203201N00931002101CN0020001N9-00271-00391098031ADDAA199001091AG10001AY181061AY221061GF107991071061002501999999KA1120M-00161MD1410001+9999MW1861OA149901181REMSYN017333   11016 91123
0072010010999991988020921004+70933-008667FM-12+0009ENJA V0203201N00461002101CN0030001N9-00261-00341098061ADDAG12000AY171031AY221031GF108991081061002501999999MD1310031+9999MW1711
0114010010999991988021000004+70933-008667FM-12+0009ENJA V0201501N00211002101CN0040001N9-00311-00351098171ADDAA106001091AG10000AY171061AY221061GF108991081061002501999999MD1210091+9999MW1701OA149901341REMSYN011333   91126
0050010010999991988021003004+70933-008667FM-12+0009ENJA V0201801N00101004201CN0100001N9-00341-00511098301ADDAG12000GF108991081051004501999999MD1210131+9999
0133010010999991988021006004+70933-008667FM-12+0009ENJA V0203401N01031004201CN0040001N9-00331-00431098271ADDAA199001091AG10000AY131061AY221061GF108991081051004501999999KA1120N-00471MD1810031+9999MW1361OA149901541REMSYN017333   21047 91130
0088010010999991988021009004+70933-008667FM-12+0009ENJA V0203301N01541000301CN0002001N9-00291-00331098051ADDAG12001AY181031AY231031GA1091+999999999GF109991091999999999999999MD1710221+9999MW1861
0111010010999991988021012004+70933-008667FM-12+0009ENJA V0200501N00511001201CN0020001N9-00011-00021097921ADDAA106004091AG10001AY181061AY231061GF108991081061001501999999MD1710131+9999MW1861SA1-0169REMSYN011222// 01016
0072010010999991988021015004+70933-008667FM-12+0009ENJA V0200901N00621004201CN0200001N9+00051-00051098091ADDAG12000AY181031AY221031GF108991081051004501999999MD1510171+9999MW1021
0133010010999991988021018004+70933-008667FM-12+0009ENJA V0200901N00461004201CN0200001N9+00051-00061098161ADDAA199006091AG10000AY181061AY221061GF107991071051004501999999KA1120M+00081MD1110071+9999MW1021OA149901031REMSYN017333   10008 91120
0050010010999991988021021004+70933-008667FM-12+0009ENJA V0200801N00311004201CN0200001N9+00061-00041098191ADDAG12000GF108991081051004501999999MD1210031+9999
0127010010999991988021100004+70933-008667FM-12+0009ENJA V0200901N00411004201CN0200001N9+00011-00021098241ADDAA106000191AG10000AY171061AY221061GF108991081051004501999999MD1210051+9999OA149900981REMSYN011333   91119EQDQ01+000782PRSWM1
0072010010999991988021103004+70933-008667FM-12+0009ENJA V0200901N00461002101CN0035001N9+00031-00011098261ADDAG12000AY171031AY221031GF108991081061002501999999MD1210021+9999MW1701
0133010010999991988021106004+70933-008667FM-12+0009ENJA V0200901N00571002101CN0040001N9+00051-00021098211ADDAA199000391AG10000AY171061AY221061GF108991081061002501999999KA1120N-00031MD1810051+9999MW1771OA149900981REMSYN017333   21003 91119
0072010010999991988021109004+70933-008667FM-12+0009ENJA V0201001N00511002101CN0100001N9+00071+00011098221ADDAG12000AY171031AY221031GF108991081061002501999999MD1410001+9999MW1701
0134010010999991988021112004+70933-008667FM-12+0009ENJA V0200601N00721006001CN0200001N9+00101+99999098221ADDAA106000191AG10000AY181061AY221061GF107991071081002501031999MD1410001+9999MW1831OA149901181SA1+0159REMSYN023222// 00015 333   91123
0072010010999991988021115004+70933-008667FM-12+0009ENJA V0200801N00621002101CN0050001N9+00061-00011098211ADDAG12001AY171031AY251031GF108991081061002501999999MD1810011+9999MW1681
0133010010999991988021118004+70933-008667FM-12+0009ENJA V0200901N00511002101CN0150001N9+00101+00001098191ADDAA199000391AG10000AY171061AY251061GF108991081061002501999999KA1120M+00121MD1710021+9999MW1501OA149901181REMSYN017333   10012 91123
0072010010999991988021121004+70933-008667FM-12+0009ENJA V0200901N00361002101CN0100001N9+00101+00011098191ADDAG12000AY151031AY221031GF108991081061002501999999MD1410001+9999MW1501
0100010010999991988021200004+70933-008667FM-12+0009ENJA V0200801N00461220001CN0100001N9+00101-00031098201ADDAA106999929AG10000AY151061AY221061GF103991031061002501001001MW1101OA149900931REMSYN011333   91118
0050010010999991988021203004+70933-008667FM-12+0009ENJA V0200801N00621004201CN0150001N9+00131+99999098131ADDAG12000GF105991051061004501001001MD1810071+9999
0133010010999991988021206004+70933-008667FM-12+0009ENJA V0202001N00821002101CN0010001N9-00191-00231098111ADDAA199000591AG10001AY171061AY221061GF108991081071002501999999KA1120N-00191MD1510021+9999MW1691OA149901131REMSYN017333   21019 91122
0072010010999991988021209004+70933-008667FM-12+0009ENJA V0201701N00621004201CN0200001N9-00231-00431098491ADDAG12000AY171031AY221031GF108991071071004501999999MD1310381+9999MW1221
0134010010999991988021212004+70933-008667FM-12+0009ENJA V0201601N00461002101CN0600001N9-00251-00481098731ADDAA106001091AG10000AY171061AY221061GF108991081061002501999999MD1210241+9999MW1701OA149900931SA1-0169REMSYN023222// 01016 333   91118
0091010010999991988021215004+70933-008667FM-12+0009ENJA V0201601N004119999999N0550001N9-00231-00401099051ADDAG12000AY171031AY221031GF107991999061002501999999MD1210321+9999MW1021EQDQ01+000082SCOTLC
0133010010999991988021218004+70933-008667FM-12+0009ENJA V0201101N00411024001CN0200001N9-00171-00311099181ADDAA199001091AG10000AY171061AY221061GF106991041061002501041001KA1120M-00171MD1210131+9999MW1021OA149900621REMSYN017333   11017 91112
0050010010999991988021221004+70933-008667FM-12+0009ENJA V0201101N00311220001CN0200001N9-00091-00201099361ADDAG12000GF102991021061002501001001MD1210181+9999
0092010010999991988021300004+70933-008667FM-12+0009ENJA V0201201N00511220001CN0300001N9-00061-00101099451ADDAA106000091AG14000GF102991021061002501001001MD1110091+9999OA149900771REMSYN011333   91115
0072010010999991988021303004+70933-008667FM-12+0009ENJA V0201401N00311002101CN0050001N9-00031-00061099491ADDAG12001AY171031AY221031GF107991071061002501999999MD1110041+9999MW1681
0133010010999991988021306004+70933-008667FM-12+0009ENJA V0201401N00261002101CN0150001N9-00061-00091099551ADDAA199000591AG10001AY171061AY221061GF107991071061002501999999KA1120N-00171MD1110061+9999MW1681OA149901131REMSYN017333   21017 91122
0050010010999991988021309004+70933-008667FM-12+0009ENJA V0201001N00511024001CN0150001N9+00051-00011099531ADDAG12000GF108991041061002501011999MD1810021+9999
0134010010999991988021312004+70933-008667FM-12+0009ENJA V0201101N00621024001CN0150001N9+00101+99999099411ADDAA106999929AG10000AY171061AY221061GF108991031071002501021999MD1710121+9999MW1021OA149900931SA1-0159REMSYN023222// 01015 333   91118
0072010010999991988021315004+70933-008667FM-12+0009ENJA V0201001N00771024001CN0100001N9+00161+00011099331ADDAG12000AY161031AY221031GF108991041071002501021999MD1710081+9999MW1101
0103010010999991988021318004+70933-008667FM-12+0009ENJA V0201601N00931002101CN0100001N9+00161+00031099231ADDAA199999929AG10000AY161061AY221061GF108991081071002501999999MD1710101+9999MW1101REMSYN011333   1/018
0072010010999991988021321004+70933-008667FM-12+0009ENJA V0201601N00871002101CN0045001N9+00191+00071099171ADDAG12000AY161031AY221031GF108991081071002501999999MD1710061+9999MW1601
0083010010999991988021400004+70933-008667FM-12+0009ENJA V0201401N00211002101CN0030001N9+00101+00071099391ADDAA106003091AG10001AY161061AY221061GF108991081071002501999999MD1310221+9999MW1631
0072010010999991988021403004+70933-008667FM-12+0009ENJA V0201401N00411001201CN0025001N9+00041+00011099401ADDAG12001AY171031AY261031GF108991081061001501999999MD1210011+9999MW1691
0133010010999991988021406004+70933-008667FM-12+0009ENJA V0201301N00511001201CN0025001N9+00101+00071099421ADDAA199010091AG10001AY171061AY261061GF108991081061001501999999KA1120N+00011MD1210021+9999MW1631OA149900931REMSYN017333   20001 91118
0072010010999991988021409004+70933-008667FM-12+0009ENJA V0201401N00311001201CN0030001N9+00101+00061099531ADDAG12001AY171031AY261031GF108991081061001501999999MD1210111+9999MW1621
0134010010999991988021412004+70933-008667FM-12+0009ENJA V0201101N00571001201CN0025001N9+00091+00061099701ADDAA106010091AG10001AY171061AY261061GF108991081071001501999999MD1210171+9999MW1611OA149900981SA1-0159REMSYN023222// 01015 333   91119
0072010010999991988021415004+70933-008667FM-12+0009ENJA V0201401N00621002101CN0100001N9+00081+00051099951ADDAG12000AY161031AY221031GF108991081061002501999999MD1210251+9999MW1601
0072010010999991988021421004+70933-008667FM-12+0009ENJA V0202301N00311001201CN0020001N9-00021-00051100421ADDAG12001AY171031AY221031GF108991081061001501999999MD1210161+9999MW1691
0114010010999991988021500004+70933-008667FM-12+0009ENJA V0202701N01641001201CN0030001N9+00001-00161100691ADDAA106011091AG10001AY171061AY221061GF108991081061001501999999MD1210251+9999MW1691OA149902111REMSYN011333   91141
0050010010999991988021503004+70933-008667FM-12+0009ENJA V0202801N01231001201CN0040001N9-00041-00481101331ADDAG12000GF108991081061001501999999MD1210641+9999
0133010010999991988021506004+70933-008667FM-12+0009ENJA V0203601N00261220001CN0200001N9-00201-00471101561ADDAA199011091AG10000AY171061AY221061GF101991011061002501001001KA1120N-00231MD1210471+9999MW1021OA149902321REMSYN017333   21023 91145
0050010010999991988021509004+70933-008667FM-12+0009ENJA V0202701N00101220001CN0300001N9-00321-00471102141ADDAG12000GF101991011061002501001001MD1210581+9999
0108010010999991988021512004+70933-008667FM-12+0009ENJA V0209991C00001220001CN0300001N9-00291-00371102281ADDAA106000091AG14000GF101991999001017501041001MD1210141+9999SA1-0169REMSYN011222// 01016EQDQ01+000002SCOTLC
0050010010999991988021515004+70933-008667FM-12+0009ENJA V0202701N00151220001CN0200001N9-00241-00321102391ADDAG12000GF103991011061002501041001MD1210111+9999
0111010010999991988021518004+70933-008667FM-12+0009ENJA V0203301N00101220001CN0300001N9-00351-00661102301ADDAA106000091AG14000GF101991011061004501001001KA1120M-00201MD1810091+9999OA149900261REMSYN017333   11020 91105
0050010010999991988021521004+70933-008667FM-12+0009ENJA V0203001N00311220001CN0300001N9-00421-00591102161ADDAG12000GF101991011061002501001001MD1710141+9999
0092010010999991988021600004+70933-008667FM-12+0009ENJA V0203501N01031220001CN0300001N9-00171-00281101931ADDAA106000091AG14000GF103991031061002501001001MD1710231+9999OA149901651REMSYN011333   91132
0072010010999991988021603004+70933-008667FM-12+0009ENJA V0203501N01031002101CN0050001N9-00231-00241101801ADDAG11000AY111031AY201031GF105991051061002501001001MD1710131+9999MW1101
0133010010999991988021606004+70933-008667FM-12+0009ENJA V0203501N01081002101CN0025001N9-00241-00251101701ADDAA106000091AG14000AY121061AY221061GF108991081061002501999999KA1120N-00451MD1610101+9999MW1101OA149901541REMSYN017333   21045 91130
0072010010999991988021609004+70933-008667FM-12+0009ENJA V0203601N01031024001CN0100001N9-00201-00231101641ADDAG12000AY121031AY221031GF108991031061002501071999MD1710061+9999MW1101
0134010010999991988021612004+70933-008667FM-12+0009ENJA V0203101N01291024001CN0100001N9-00211-00261101611ADDAA106000091AG14000AY121061AY221061GF106991031061001501071999MD1710031+9999MW1101OA149901541SA1-0169REMSYN023222// 01016 333   91130
0072010010999991988021615004+70933-008667FM-12+0009ENJA V0203201N00871024001CN0100001N9-00021-00231101571ADDAG12000AY131031AY221031GF106991031061001501071091MD1710041+9999MW1361
0133010010999991988021618004+70933-008667FM-12+0009ENJA V0203201N00771024001CN0040001N9-00141-00171101521ADDAA106000091AG14000AY131061AY221061GF106991031061001501031001KA1120M+00011MD1710051+9999MW1101OA149901601REMSYN017333   10001 91131
0072010010999991988021621004+70933-008667FM-12+0009ENJA V0203301N00511024001CN0060001N9+00011-00161101501ADDAG12000AY121031AY221031GF105991031061002501031001MD1610021+9999MW1101
0072010010999991988021703004+70933-008667FM-12+0009ENJA V0203601N00931007501CN0050001N9-00071-00101101241ADDAG12000AY121031AY211031GF108991081051008001999999MD1710131+9999MW1101
0133010010999991988021706004+70933-008667FM-12+0009ENJA V0203501N00821007501CN0050001N9+00011-00051101061ADDAA106000091AG14000AY121061AY211061GF108991081051008001999999KA1120N-00161MD1710181+9999MW1101OA149901341REMSYN017333   21016 91126
0072010010999991988021709004+70933-008667FM-12+0009ENJA V0209991C00001002101CN0025001N9-00151-00191100941ADDAG12000AY171031AY221031GF108991081061002501999999MD1710121+9999MW1781
0134010010999991988021712004+70933-008667FM-12+0009ENJA V0209991C00001002101CN0015001N9-00131-00171100721ADDAA106000391AG10000AY171061AY221061GF108991081061002501999999MD1710221+9999MW1711OA149900821SA1-0199REMSYN023222// 01019 333   91116
0072010010999991988021715004+70933-008667FM-12+0009ENJA V0209991C00001001201CN0010001N9-00141-00181100471ADDAG12000AY171031AY221031GF108991081061001501999999MD1710251+9999MW1711
0149010010999991988021718004+70933-008667FM-12+0009ENJA V0209991C00001000601CN0006001N9-00141-00171100211ADDAA199001091AG10000AY171061AY221061GA1091+999999999GF109991091999999999999999KA1120M+00081MD1710261+9999MW1281OA149900211REMSYN017333   10008 91104
0088010010999991988021721004+70933-008667FM-12+0009ENJA V0202001N00151000301CN0005001N9-00231-00241100091ADDAG12000AY151031AY241031GA1091+999999999GF109991091999999999999999MD1610121+9999MW1561
0114010010999991988021800004+70933-008667FM-12+0009ENJA V0201801N00211002101CN0050001N9-00221-00231099891ADDAA106999929AG10000AY151061AY241061GF108991081061002501999999MD1710201+9999MW1101OA149900461REMSYN011333   91109
0072010010999991988021803004+70933-008667FM-12+0009ENJA V0201501N00361002101CN0045001N9-00141-00151099711ADDAG12000AY171031AY241031GF108991081061002501999999MD1710181+9999MW1701
0133010010999991988021806004+70933-008667FM-12+0009ENJA V0201501N00511002101CN0040001N9-00071-00081099491ADDAA199001091AG10001AY171061AY271061GF108991081061002501999999KA1120N-00231MD1710221+9999MW1681OA149900621REMSYN017333   21023 91112
0072010010999991988021809004+70933-008667FM-12+0009ENJA V0201601N00211002101CN0010001N9-00071-00081099401ADDAG12001AY171031AY221031GF108991081071002501999999MD1610091+9999MW1691
0134010010999991988021812004+70933-008667FM-12+0009ENJA V0203001N01181024001CN0030001N9-00161-00261099361ADDAA106005091AG10000AY171061AY221061GF108991041071002501011999MD1710041+9999MW1361OA149901291SA1-0199REMSYN023222// 01019 333   91125
0133010010999991988021818004+70933-008667FM-12+0009ENJA V0202701N00411024001CN0300001N9-00281-00481099831ADDAA199005091AG10000AY131061AY221061GF107991031051004501041999KA1120M-00031MD1210271+9999MW1021OA149901291REMSYN017333   11003 91125
0072010010999991988021821004+70933-008667FM-12+0009ENJA V0202701N00461004201CN0045001N9-00361-00571100081ADDAG12000AY171031AY221031GF108991081051004501999999MD1210251+9999MW1701
0083010010999991988021900004+70933-008667FM-12+0009ENJA V0202301N00411004201CN0045001N9-00471-00641100341ADDAA106000191AG10000AY171061AY221061GF107991071051004501999999MD1210261+9999MW1701
0072010010999991988021903004+70933-008667FM-12+0009ENJA V0202301N00571220001CN0200001N9-00541-00901100641ADDAG12000AY171031AY211031GF102991021051004501001001MD1210301+9999MW1011
0111010010999991988021906004+70933-008667FM-12+0009ENJA V0202301N00621220001CN0200001N9-00571-00871100851ADDAA199000191AG10000GF102991021051004501001001KA1120N-00591MD1210211+9999OA149901341REMSYN017333   21059 91126
0069010010999991988021909004+70933-008667FM-12+0009ENJA V0202301N00511002101CN0150001N9-00651-00901999999ADDAG12000GF106991061051002501999999MD1210251+9999EQDQ01+100113APOSLP
0112010010999991988021912004+70933-008667FM-12+0009ENJA V0202201N00311024001CN0750001N9-00491-00871101271ADDAA106000091AG14000GF106991031051004501031001MD1210171+9999OA149901601SA1-0189REMSYN023222// 01018 333   91131
0050010010999991988021915004+70933-008667FM-12+0009ENJA V0202301N00311024001CN0750001N9-00491-00871101391ADDAG12000GF105991021051004501031001MD1110121+9999
0111010010999991988021918004+70933-008667FM-12+0009ENJA V0202301N00211004201CN0750001N9-00511-00941101451ADDAA106000091AG14000GF105991051051004501001001KA1120M-00391MD1210061+9999OA149900571REMSYN017333   11039 91111
0050010010999991988021921004+70933-008667FM-12+0009ENJA V0202301N00311004201CN0300001N9-00491-00801101521ADDAG12000GF108991081051004501999999MD1210071+9999
0061010010999991988022000004+70933-008667FM-12+0009ENJA V0202301N00101004201CN0300001N9-00431-00631101461ADDAA106000091AG14000GF108991081051004501999999MD1810061+9999
0036010010999991988022003004+70933-008667FM-12+0009ENJA V0202201N00511004201CN0300001N9-00291-00461101271ADDAG12000GF108991081051004501999999
0133010010999991988022006004+70933-008667FM-12+0009ENJA V0202201N00411002101CN0100001N9-00221-00271101051ADDAA199999929AG10000AY171061AY221061GF108991081051002501999999KA1120N-00691MD1710221+9999MW1701OA149900671REMSYN017333   21069 91113
0072010010999991988022009004+70933-008667FM-12+0009ENJA V0201201N00511001201CN0020001N9-00141-00231100791ADDAG12001AY171031AY221031GF108991081061001501999999MD1710261+9999MW1731
0111010010999991988022012004+70933-008667FM-12+0009ENJA V0201201N00771002101CN0020001N9-00081-00091100401ADDAA106001091AG10001AY171061AY221061GF108991081061002501999999MD1710391+9999MW1731SA1-0179REMSYN011222// 01017
0072010010999991988022015004+70933-008667FM-12+0009ENJA V0201001N00771002101CN0025001N9-00031-00041100141ADDAG12001AY171031AY221031GF108991081061002501999999MD1710261+9999MW1691
0133010010999991988022018004+70933-008667FM-12+0009ENJA V0201201N00211002101CN0020001N9-00011-00021099871ADDAA199003091AG10000AY151061AY221061GF108991081061002501999999KA1120M+00001MD1710271+9999MW1511OA149901131REMSYN017333   10000 91122
0072010010999991988022021004+70933-008667FM-12+0009ENJA V0202001N00311002101CN0015001N9-00081-00091099911ADDAG12000AY151031AY221031GF108991081061002501999999MD1310041+9999MW1511
0114010010999991988022100004+70933-008667FM-12+0009ENJA V0201501N00151001201CN0010001N9-00131-00141100031ADDAA106000591AG10000AY151061AY221061GF108991081061001501999999MD1210121+9999MW1511OA149900511REMSYN011333   91110
0072010010999991988022103004+70933-008667FM-12+0009ENJA V0201501N00151002101CN0015001N9-00231-00241100151ADDAG12000AY151031AY221031GF108991081061002501999999MD1210121+9999MW1501
0133010010999991988022106004+70933-008667FM-12+0009ENJA V0209991C00001002101CN0020001N9-00361-00371100271ADDAA199000591AG10000AY151061AY221061GF108991081061002501999999KA1120N-00361MD1210121+9999MW1101OA149900151REMSYN017333   21036 91103
0072010010999991988022109004+70933-008667FM-12+0009ENJA V0209991C00001002101CN0010001N9-00291-00301100401ADDAG12000AY141031AY221031GF108991081061002501999999MD1210131+9999MW1101
0150010010999991988022112004+70933-008667FM-12+0009ENJA V0209991C00001000301CN0005001N9-00341-00351100591ADDAA106000091AG14000AY141061AY241061GA1091+999999999GF109991091999999999999999MD1210191+9999MW1441OA149900151SA1-0189REMSYN023222// 01018 333   91103
0072010010999991988022115004+70933-008667FM-12+0009ENJA V0209991C00001001201CN0040001N9-00371-00381100621ADDAG12000AY141031AY221031GF108991081061001501999999MD1110031+9999MW1101
0133010010999991988022118004+70933-008667FM-12+0009ENJA V0209991C00001001201CN0020001N9-00291-00301100711ADDAA199000391AG10000AY151061AY241061GF108991081061001501999999KA1120M-00241MD1210091+9999MW1561OA149900101REMSYN017333   11024 91102
0114010010999991988022200004+70933-008667FM-12+0009ENJA V0201201N00151220001CN0100001N9-00271-00311100851ADDAA106999929AG10000AY151061AY221061GF102991021061002501001001MD1210061+9999MW1101OA149900721REMSYN011333   91114
0072010010999991988022203004+70933-008667FM-12+0009ENJA V0209991C00001220001CN0100001N9-00261-00331100961ADDAG12000AY111031AY201031GF102991011061002501031001MD1210111+9999MW1101
0133010010999991988022206004+70933-008667FM-12+0009ENJA V0209991C00001001201CN0030001N9-00221-00261101141ADDAA199999929AG10000AY121061AY211061GF108991081061001501999999KA1120N-00361MD1210181+9999MW1561OA149900261REMSYN017333   21036 91105
0072010010999991988022209004+70933-008667FM-12+0009ENJA V0201801N00211007501CN0500001N9-00251-00351101521ADDAG12000AY151031AY221031GF107991051051008001071001MD1310381+9999MW1021
0134010010999991988022212004+70933-008667FM-12+0009ENJA V0201001N00571002101CN0080001N9-00031-00131101841ADDAA106999929AG10000AY171061AY221061GF108991051061002501071999MD1210321+9999MW1781OA149900881SA1-0179REMSYN023222// 01017 333   91117
0072010010999991988022215004+70933-008667FM-12+0009ENJA V0201001N00461024001CN0500001N9-00041-00451102061ADDAG12000AY171031AY221031GF105991031051008001031001MD1110221+9999MW1011
0133010010999991988022218004+70933-008667FM-12+0009ENJA V0203501N00821220001CN0300001N9-00231-00311102311ADDAA199999929AG10000AY171061AY221061GF102991011061002501041001KA1120M+00011MD1210251+9999MW1011OA149901391REMSYN017333   10001 91127
0050010010999991988022221004+70933-008667FM-12+0009ENJA V0203501N00721002101CN0300001N9-00301-00371102511ADDAG12000GF107991071061002501999999MD1210201+9999
0092010010999991988022300004+70933-008667FM-12+0009ENJA V0203501N00771004201CN0750001N9-00301-00411102641ADDAA106000091AG14000GF105991051061004501001001MD1110131+9999OA149901491REMSYN011333   91129
0072010010999991988022303004+70933-008667FM-12+0009ENJA V0203501N00461002101CN0600001N9-00361-00431102771ADDAG12000AY171031AY221031GF106991061061002501999999MD1210131+9999MW1021
0133010010999991988022306004+70933-008667FM-12+0009ENJA V0203401N00671002101CN0550001N9-00441-00511102811ADDAA199999929AG10000AY171061AY221061GF106991061061002501001001KA1120N-00451MD1310041+9999MW1021OA149901181REMSYN017333   21045 91123
0050010010999991988022309004+70933-008667FM-12+0009ENJA V0203001N00101004201CN0150001N9-00601-00761102911ADDAG12000GF107991071051004501999999MD1210101+9999
0112010010999991988022312004+70933-008667FM-12+0009ENJA V0202201N00261002101CN0150001N9-00451-00551102941ADDAA106000091AG14000GF108991081061002501999999MD1110031+9999OA149900621SA1-0189REMSYN023222// 01018 333   91112
0050010010999991988022315004+70933-008667FM-12+0009ENJA V0201901N00461002101CN0150001N9-00401-00551102951ADDAG12000GF108991081061002501999999MD1210011+9999
0111010010999991988022318004+70933-008667FM-12+0009ENJA V0201901N00621002101CN0150001N9-00401-00551102871ADDAA106000091AG14000GF108991081061002501999999KA1120M-00381MD1710081+9999OA149900721REMSYN017333   11038 91114
0050010010999991988022321004+70933-008667FM-12+0009ENJA V0201901N00721002101CN0150001N9-00261-00521102851ADDAG12000GF107991071061002501999999MD1710021+9999
0061010010999991988022400004+70933-008667FM-12+0009ENJA V0201901N00621004201CN0200001N9-00191-00411102561ADDAA106000091AG14000GF108991081061004501999999MD1710171+9999
0050010010999991988022403004+70933-008667FM-12+0009ENJA V0201901N00821004201CN0200001N9-00151-00281102411ADDAG12000GF108991081061004501999999MD1710271+9999
0111010010999991988022406004+70933-008667FM-12+0009ENJA V0201901N00821004201CN0200001N9-00121-00251102171ADDAA106000091AG14000GF108991081051004501999999KA1120N-00411MD1710241+9999OA149901031REMSYN017333   21041 91120
0050010010999991988022409004+70933-008667FM-12+0009ENJA V0202101N01081004201CN0100001N9-00081-00191101811ADDAG12000GF108991081051004501999999MD1710361+9999
0134010010999991988022412004+70933-008667FM-12+0009ENJA V0201801N01231002101CN0030001N9-00041-00171101471ADDAA106999929AG10001AY171061AY221061GF108991081061002501999999MD1710331+9999MW1681OA149901651SA1-0189REMSYN023222// 01018 333   91132
0072010010999991988022415004+70933-008667FM-12+0009ENJA V0201801N01131001201CN0015001N9-00041-00071101191ADDAG12001AY171031AY221031GF108991081061001501999999MD1710281+9999MW1681
0133010010999991988022418004+70933-008667FM-12+0009ENJA V0202101N00771001201CN0015001N9-00011-00031100981ADDAA199000591AG10001AY171061AY221061GF108991081061001501999999KA1120M+00001MD1710211+9999MW1691OA149901751REMSYN017333   10000 91134
0072010010999991988022421004+70933-008667FM-12+0009ENJA V0202101N00821002101CN0030001N9+00001-00021100921ADDAG12000AY171031AY221031GF108991081061002501999999MD1710061+9999MW1701
0114010010999991988022500004+70933-008667FM-12+0009ENJA V0202101N00571002101CN0050001N9-00031-00091100941ADDAA106999929AG10000AY171061AY221061GF108991081061002501999999MD1310031+9999MW1021OA149901241REMSYN011333   91124
0050010010999991988022503004+70933-008667FM-12+0009ENJA V0202101N00931002101CN0100001N9+00031-00341100941ADDAG12000GF108991081061002501999999MD1410001+9999
0111010010999991988022506004+70933-008667FM-12+0009ENJA V0202101N00621004201CN0200001N9-00051-00451100941ADDAA199999929AG10000GF108991081051004501999999KA1120N-00151MD1410001+9999OA149901651REMSYN017333   21015 91132
0050010010999991988022509004+70933-008667FM-12+0009ENJA V0202501N00511004201CN0200001N9-00141-00491101111ADDAG12000GF108991081051004501999999MD1310171+9999
0111010010999991988022512004+70933-008667FM-12+0009ENJA V0202801N01081220001CN0200001N9-00311-00611101231ADDAA106000091AG14000AY121061AY221061GF104991041051004501001001MD1210121+9999MW1361SA1-0139REMSYN011222// 01013
0072010010999991988022515004+70933-008667FM-12+0009ENJA V0202701N00461220001CN0300001N9-00281-00841101431ADDAG12000AY131031AY211031GF103991031051004501001001MD1210201+9999MW1011
0111010010999991988022518004+70933-008667FM-12+0009ENJA V0202801N00101220001CN0300001N9-00531-01091101521ADDAA106000091AG14000GF101991011051004501001001KA1120M-00031MD1210091+9999OA149901491REMSYN017333   11003 91129
0050010010999991988022521004+70933-008667FM-12+0009ENJA V0201001N00411004201CN0200001N9-00381-00501101611ADDAG12000GF107991071051004501999999MD1210091+9999
0092010010999991988022600004+70933-008667FM-12+0009ENJA V0201701N00261007501CN0300001N9-00391-00591101621ADDAA106000091AG14000GF105991051051008001001001MD1110011+9999OA149900461REMSYN011333   91109
0050010010999991988022603004+70933-008667FM-12+0009ENJA V0201701N00211007501CN0300001N9-00381-00611101511ADDAG12000GF106991061051008001001001MD1810111+9999
0111010010999991988022606004+70933-008667FM-12+0009ENJA V0201701N00151007501CN0300001N9-00341-00551101411ADDAA106000091AG14000GF107991071051008001999999KA1120N-00641MD1710101+9999OA149900411REMSYN017333   21064 91108
0072010010999991988022609004+70933-008667FM-12+0009ENJA V0201101N00101004201CN0200001N9-00241-00411101351ADDAG12000AY171031AY221031GF108991081051004501999999MD1710061+9999MW1701
0134010010999991988022612004+70933-008667FM-12+0009ENJA V0201501N00101001201CN0040001N9-00221-00261101201ADDAA106000391AG10001AY171061AY221061GF108991081061001501999999MD1710151+9999MW1731OA149900461SA1-0159REMSYN023222// 01015 333   91109
0072010010999991988022615004+70933-008667FM-12+0009ENJA V0201601N00101001201CN0040001N9-00201-00241101131ADDAG12000AY171031AY221031GF108991081061001501999999MD1710071+9999MW1711
0133010010999991988022618004+70933-008667FM-12+0009ENJA V0209991C00001220001CN0250001N9-00301-00341101041ADDAA199002091AG10000AY171061AY211061GF104991021061002501031001KA1120M-00181MD1710091+9999MW1011OA149900151REMSYN017333   11018 91103
0050010010999991988022621004+70933-008667FM-12+0009ENJA V0209991C00001007501CN0300001N9-00281-00311101041ADDAG12000GF107991071051008001999999MD1410001+9999
0114010010999991988022700004+70933-008667FM-12+0009ENJA V0209991C00001007501CN0100001N9-00251-00261100941ADDAA106000191AG10000AY171061AY221061GF107991071051008001999999MD1810101+9999MW1101OA149900511REMSYN011333   91110
0072010010999991988022703004+70933-008667FM-12+0009ENJA V0209991C00001002101CN0030001N9-00251-00261100721ADDAG12000AY171031AY221031GF108991081071002501999999MD1710221+9999MW1711
0133010010999991988022706004+70933-008667FM-12+0009ENJA V0203001N00261002101CN0030001N9-00251-00281100481ADDAA199002091AG10000AY171061AY221061GF108991081071002501999999KA1120N-00371MD1710241+9999MW1711OA149900261REMSYN017333   21037 91105
0072010010999991988022709004+70933-008667FM-12+0009ENJA V0200201N01031002101CN0030001N9-00381-00431100351ADDAG12000AY171031AY231031GF108991081071002501999999MD1610131+9999MW1711
0134010010999991988022712004+70933-008667FM-12+0009ENJA V0200101N012319999999N0025001N9-00471-00811100401ADDAA106000391AG10000AY131061AY201061GF106991999999002501999999MD1310051+9999MW1361OA149901541SA1-0169REMSYN023222// 01016 333   91130
0072010010999991988022715004+70933-008667FM-12+0009ENJA V0203401N00981002101CN0030001N9-00391-00491100481ADDAG12000AY131031AY221031GF106991051061002501031001MD1210081+9999MW1361
0149010010999991988022718004+70933-008667FM-12+0009ENJA V0203501N01391000301CN0002001N9-00581-00661100931ADDAA199002091AG10000AY181061AY231061GA1091+999999999GF109991091999999999999999KA1120M-00241MD1310451+9999MW1391OA149902371REMSYN017333   11024 91146
0088010010999991988022721004+70933-008667FM-12+0009ENJA V0203501N01341000151CN0001001N9-00551-00621101381ADDAG12000AY131031AY221031GA1091+999999999GF109991091999999999999999MD1210451+9999MW1851
0114010010999991988022800004+70933-008667FM-12+0009ENJA V0203501N01181002101CN0030001N9-00751-01001101911ADDAA106000591AG10000AY181061AY231061GF108991081051002501999999MD1210531+9999MW1381OA149902321REMSYN011333   91145
0072010010999991988022803004+70933-008667FM-12+0009ENJA V0203501N01341002101CN0035001N9-00691-00911102121ADDAG12000AY181031AY231031GF108991081051002501999999MD1210211+9999MW1851
0133010010999991988022806004+70933-008667FM-12+0009ENJA V0203501N01131002101CN0040001N9-00521-00861102381ADDAA199001091AG10000AY181061AY231061GF108991081051002501999999KA1120N-00791MD1210261+9999MW1361OA149902111REMSYN017333   21079 91141
0072010010999991988022809004+70933-008667FM-12+0009ENJA V0203501N01231007501CN0060001N9-00861-01271102791ADDAG12000AY131031AY221031GF106991051051008001041001MD1310411+9999MW1361
0167010010999991988022810004+70933-008667FM-12+0009ENJA V0203301N01031004201CN0250001N9-00901+99999103422ADDAA199000191AG10999AY131011AY221011GF106991051071004501051999KA1120M-00521MD1210141+9999MW1361OA149902321REMSYN032333   11052 91145     = 41  2008EQDQ01+103423APOSLP
0134010010999991988022812004+70933-008667FM-12+0009ENJA V0203501N01131007501CN0150001N9-00921-01381103101ADDAA106000191AG10000AY131061AY221061GF107991071051008001001001MD1110311+9999MW1361OA149902471SA1-0179REMSYN023222// 01017 333   91148
0072010010999991988022815004+70933-008667FM-12+0009ENJA V0203401N01291012001CN0150001N9-00931-01291103281ADDAG12000AY131031AY221031GF107991071081008001001001MD1210181+9999MW1361
0133010010999991988022818004+70933-008667FM-12+0009ENJA V0203301N01031004201CN0250001N9-00911-01241103421ADDAA199000191AG10000AY131061AY221061GF106991051071004501051999KA1120M-00521MD1210141+9999MW1361OA149902321REMSYN017333   11052 91145
0072010010999991988022821004+70933-008667FM-12+0009ENJA V0203601N00821009001CN0600001N9-01041-01481103381ADDAG12000AY131031AY221031GF105991051081004501001001MD1710041+9999MW1011
0083010010999991988022900004+70933-008667FM-12+0009ENJA V0203401N00871009001CN0300001N9-01091-01541103361ADDAA106000091AG14000AY131061AY221061GF106991061081004501001001MD1710021+9999MW1021
0050010010999991988022903004+70933-008667FM-12+0009ENJA V0203401N00671009001CN0300001N9-01131-01651103191ADDAG12000GF105991051081004501001001MD1710171+9999
0111010010999991988022906004+70933-008667FM-12+0009ENJA V0203401N00461220001CN0300001N9-01151-01631102991ADDAA106000091AG14000GF104991041051004501001001KA1120N-01181MD1710201+9999OA149901241REMSYN017333   21118 91124
0050010010999991988022909004+70933-008667FM-12+0009ENJA V0203401N00411220001CN0750001N9-01141-01581103021ADDAG12000GF104991041051004501001001MD1210031+9999
0112010010999991988022912004+70933-008667FM-12+0009ENJA V0203501N00511024001CN0750001N9-01111-01691103031ADDAA106000091AG14000GF105991031051008001031081MD1210011+9999OA149900771SA1-0189REMSYN023222// 01018 333   91115
0050010010999991988022915004+70933-008667FM-12+0009ENJA V0203501N00361220001CN0750001N9-01121-01701103051ADDAG12000GF104991041051008001001001MD1210021+9999
0111010010999991988022918004+70933-008667FM-12+0009ENJA V0203501N00411220001CN0750001N9-01161-01761103031ADDAA106000091AG14000GF103991031021008001001001KA1120M-01081MD1010021+9999OA149900621REMSYN017333   11108 91112
0050010010999991988022921004+70933-008667FM-12+0009ENJA V0203501N00261220001CN0750001N9-01231-01701102971ADDAG12000GF102991021021008001001001MD1710061+9999
0092010010999991988030100004+70933-008667FM-12+0009ENJA V0200101N00411220001CN0750001N9-01271-01661102841ADDAA106000091AG14000GF102991021021008001001001MD1710131+9999OA149900621REMSYN011333   91112
0050010010999991988030103004+70933-008667FM-12+0009ENJA V0203601N00621220001CN0750001N9-01301-01761102641ADDAG12000GF102991021021008001001001MD1710201+9999
0111010010999991988030106004+70933-008667FM-12+0009ENJA V0203601N00411220001CN0750001N9-01251-01841102411ADDAA106000091AG14000GF103991031021008001001001KA1120N-01361MD1710231+9999OA149900931REMSYN017333   21136 91118
0072010010999991988030109004+70933-008667FM-12+0009ENJA V0201401N00411002101CN0200001N9-01021-01441102141ADDAG12000AY181031AY221031GF108991081061002501999999MD1710271+9999MW1851
0111010010999991988030112004+70933-008667FM-12+0009ENJA V0201101N00361001201CN0040001N9-01011-01181101921ADDAA106000191AG10000AY181061AY221061GF108991081061001501999999MD1710221+9999MW1851SA1-0189REMSYN011222// 01018
0072010010999991988030115004+70933-008667FM-12+0009ENJA V0200901N00671002101CN0100001N9-00901-01061101681ADDAG12000AY181031AY221031GF108991081061002501999999MD1710241+9999MW1851
0133010010999991988030118004+70933-008667FM-12+0009ENJA V0200901N00871002101CN0100001N9-00861-01091101521ADDAA199000191AG10000AY181061AY221061GF108991081061002501999999KA1120M-00851MD1710151+9999MW1021OA149901181REMSYN017333   11085 91123
0050010010999991988030121004+70933-008667FM-12+0009ENJA V0201001N00621004201CN0100001N9-00851-01091101481ADDAG12000GF108991061061004501071999MD1610041+9999
0092010010999991988030200004+70933-008667FM-12+0009ENJA V0200901N00821007501CN0300001N9-00841-01061101451ADDAA106000091AG14000GF107991071051008001999999MD1610031+9999OA149901081REMSYN011333   91121
0072010010999991988030203004+70933-008667FM-12+0009ENJA V0200901N00511004201CN0080001N9-00911-01201101491ADDAG12000AY121031AY221031GF108991081061004501999999MD1310041+9999MW1101
0133010010999991988030206004+70933-008667FM-12+0009ENJA V0200201N01131004201CN0200001N9-01071-01571101571ADDAA199000191AG10000AY171061AY231061GF105991051061004501001001KA1120N-01101MD1210081+9999MW1361OA149901541REMSYN017333   21110 91130
0091010010999991988030209004+70933-008667FM-12+0009ENJA V0200301N010819999999N0200001N9-01131-01721101701ADDAG12000AY131031AY221031GF106991999061004501001001MD1210131+9999MW1361EQDQ01+000042SCOTLC
0134010010999991988030212004+70933-008667FM-12+0009ENJA V0200201N00871002101CN0050001N9-01141-01501101831ADDAA106999929AG10000AY181061AY231061GF107991061091002501999999MD1210131+9999MW1851OA149901601SA1-0189REMSYN023222// 01018 333   91131
0133010010999991988030218004+70933-008667FM-12+0009ENJA V0203501N00981002101CN0030001N9-01271-01471101921ADDAA199000391AG10000AY181061AY231061GF105991051091002501001001KA1120M-01051MD1210051+9999MW1261OA149901601REMSYN017333   11105 91131
0072010010999991988030221004+70933-008667FM-12+0009ENJA V0203501N00981024001CN0100001N9-01301-01541101931ADDAG12000AY131031AY221031GF105991021061002501031001MD1110011+9999MW1361
0092010010999991988030300004+70933-008667FM-12+0009ENJA V0203501N00871220001CN0220001N9-01361-01701101861ADDAA106000091AG14000GF101991011051004501041001MD1810071+9999OA149901541REMSYN011333   91130
0072010010999991988030303004+70933-008667FM-12+0009ENJA V0203501N01491220001CN0100001N9-01491-01771101771ADDAG12000AY111031AY201031GF101991011061004501001001MD1710091+9999MW1361
0133010010999991988030306004+70933-008667FM-12+0009ENJA V0203501N01081220001CN0150001N9-01531-01871101771ADDAA199000391AG10000AY131061AY211061GF104991041051004501001001KA1120N-01571MD1510001+9999MW1031OA149902161REMSYN017333   21157 91142
0050010010999991988030309004+70933-008667FM-12+0009ENJA V0203501N00981004201CN0200001N9-01511-01871101791ADDAG12000GF105991051051004501001001MD1110021+9999
